:020000040800F2
:1000000078060020B5010008BD010008BF01000806
:10001000C1010008C3010008C5010008000000007C
:10002000000000000000000000000000C701000800
:10003000C901000800000000CB010008CD01000844
:10004000CF010008CF010008CF010008CF01000850
:10005000CF010008CF01000871020008CF0100089D
:10006000CF010008C1020008CF010008CF0100083D
:10007000CF010008CF010008CF010008CF01000820
:10008000CF010008CF010008CF010008CF01000810
:10009000CF010008CF010008CF010008CF01000800
:1000A000CF010008CF010008CF010008CF010008F0
:1000B00095080008C9080008CF010008CF01000812
:1000C000CF010008CF010008CF010008CF010008D0
:1000D000CF010008CF010008CF010008CF010008C0
:1000E000CF010008CF010008CF01000800F002F89E
:1000F00000F050F814A696E8000CB244B344DA4578
:1001000001D100F047F8BAE80F000FA696E83000DA
:10011000A5EB040504EB0607AAEB0704A7F101070A
:100120004FEA15154FEA3414A4F10104AC4201D38F
:1001300000F030F813F0010F18BFFB1A43F0010371
:1001400000F001F8DBE7184798200000B820000015
:10015000103A24BF78C878C1FAD8520724BF30C8F3
:1001600030C144BF04680C60704700007047000055
:100170000023002400250026103A28BF78C1FBD8B0
:10018000520728BF30C148BF0B6070471FB51FBD65
:1001900010B510BD00F036F81146FFF7F7FF01F07B
:1001A0009FFA00F054F803B4FFF7F2FF03BC00F02D
:1001B00057F800000948804709480047FEE7FEE776
:1001C000FEE7FEE7FEE7FEE7FEE7FEE7FEE7FEE707
:1001D00004480549054A064B704700002D080008F1
:1001E000ED0000087800002078060020780200204A
:1001F0007802002070477047704700000048704741
:10020000080000207546FFF7F9FFAE460500694675
:10021000534620F00700854618B020B5FFF7D8FFF9
:10022000BDE820404FF000064FF000074FF00008F7
:100230004FF0000BAC46ACE8C009ACE8C009ACE834
:10024000C009ACE8C00921F007018D46704710B520
:100250000446AFF300802046BDE81040FFF7A3BF7F
:1002600001491820ABBEFEE72600020070470000DF
:1002700080B540F21440C4F201000068C007F0B13C
:10028000FFE740F21441C4F20101086840F00100A8
:100290000860142000F09CFB40F60800C4F2010046
:1002A0000068C00750B1FFE740F27401C2F20001DC
:1002B0000868B0FA80F040090860FFE7FFE780BDFA
:1002C00080B540F21440C4F2010000680007002825
:1002D0001CD5FFE740F21441C4F20101086840F068
:1002E00008000860142000F073FB40F60800C4F218
:1002F000010000680007002807D5FFE740F2680109
:10030000C2F2000100200860FFE7FFE780BD0000A7
:1003100080B582B08DF807009DF80700752100F0C8
:1003200025F88DF806009DF807006B21012200F0EA
:10033000C7F89DF8070019210022009200F0C0F8CC
:10034000009A9DF807001A2100F0BAF89DF80700FE
:100350001B21082200F0B4F8009A9DF807001C2128
:1003600000F0AEF89DF8060002B080BD80B584B004
:100370008DF80F008DF80E109DF80F0000F0D2FEE2
:100380009DF80F00D02101910022029200F06EFD35
:100390009DF80F009DF80E1000F0B2FD9DF80F00C3
:1003A00000F0C0FE01999DF80F00012200F05EFDF3
:1003B00002999DF80F0000F04FFE8DF80D009DF89A
:1003C0000F0000F0E5FE9DF80D0004B080BD0000B8
:1003D00080B58AB08DF8270008919DF82700432149
:1003E000FFF7C4FF8DF81A009DF827004421FFF79E
:1003F000BDFF8DF81B009DF827004521FFF7B6FFD4
:100400008DF81C009DF827004621FFF7AFFF8DF8FF
:100410001D009DF827004721FFF7A8FF8DF81E005B
:100420009DF827004821FFF7A1FF8DF81F009DF8D8
:100430001A109DF81B0040EA01200899C8809DF819
:100440001C109DF81D0040EA0120089908819DF8C4
:100450001E109DF81F0040EA012008994881089865
:100460000190B0F9060001F0ADFC0022039246F2C3
:100470000003C4F26003049301F00EFB0A460199E5
:10048000CA62886208980290B0F9080001F09AFCEC
:10049000039A049B01F000FB0A4602994A63086331
:1004A00008980590B0F90A0001F08CFC039A049BAF
:1004B00001F0F2FA0A460599CA6388630AB080BD62
:1004C00080B582B08DF807008DF806108DF80520F4
:1004D0009DF8070000F026FE9DF80700D0210022BD
:1004E00000F0C4FC9DF807009DF8061000F008FD20
:1004F0009DF807009DF8051000F002FD9DF807002B
:1005000000F046FE02B080BD80B500F001F880BD6D
:1005100084B000200390029041F20001C4F2020175
:10052000086840F480300860FFE741F20000C4F240
:100530000200006800F4003002900398013003903C
:10054000FFE702990020019039B9FFE70398B0F561
:10055000A06018BF01200190FFE70198C0070028A4
:10056000E3D1FFE741F20000C4F20200006880031B
:10057000002803D5FFE70120029002E0002002904E
:10058000FFE70298012851D1FFE742F20001C4F2CF
:100590000201086840F010000860086820F00700B9
:1005A0000860086840F00200086041F20401C4F2EB
:1005B000020100910868086008680860086840F453
:1005C00080600860086820F47C100860086840F4C7
:1005D000E810086041F20001C4F20201086840F02E
:1005E00080700860FFE741F20000C4F2020000687A
:1005F0008001002801D4FFE7F5E741F20401C4F2CD
:100600000201086820F003000860086840F002005A
:100610000860FFE741F20400C4F20200006800F045
:100620000C00082801D0FFE7F4E700E0FFE704B082
:100630007047000080B582B041F20001C4F20201AF
:10064000086840F480300860FFE741F20000C4F21F
:10065000020000688003002801D4FFE7F5E742F2BA
:100660000001C4F20201086840F010000860086848
:1006700020F007000860086840F00200086041F2BE
:100680000401C4F20201086840F480300860086880
:1006900040F4E010086041F20001C4F20201086871
:1006A00040F080700860FFE741F20000C4F20200F1
:1006B00000688001002801D4FFE7F5E741F204015A
:1006C000C4F20201019108680860086840F4806083
:1006D000086008680860086820F00300086008687F
:1006E00040F002000860FFE741F20400C4F202009B
:1006F000006800F00C00082801D0FFE7F4E700F0E4
:1007000003F802B080BD000084B000200390029086
:10071000019041F20400C4F20200006800F00C00F5
:1007200003900398009040B1FFE7009804280ED092
:10073000FFE70098082814D056E040F20001C2F20A
:10074000000141F20020C0F27A00086056E040F259
:100750000001C2F2000141F20020C0F27A000860FC
:100760004CE041F20400C4F20200016801F470118F
:100770000291006800F4803001900299022000EBA1
:1007800091400290019860B9FFE7029840F600118D
:10079000C0F23D01484340F20001C2F2000108608E
:1007A00021E041F20400C4F2020000688003002846
:1007B0000CD5FFE7029840F60011C0F23D01484316
:1007C00040F20001C2F2000108600BE0029841F221
:1007D0000021C0F27A01484340F20001C2F2000158
:1007E0000860FFE7FFE709E040F20001C2F2000104
:1007F00041F20020C0F27A000860FFE741F20400F5
:10080000C4F202000068C0B2010942F2BC10C0F696
:100810000000405C0390039A40F20001C2F2000124
:100820000868D040086004B07047000080B541F20D
:100830000002C4F20202106840F00100106041F2B0
:100840000401C4F2020108680023CFF6FF03184038
:10085000086010684FF6FF73CFF6F663184010601B
:10086000106820F480201060086820F4FE00086002
:1008700041F20801C4F202014FF41F000860FFF7C3
:1008800043FE4EF60851CEF200014FF000600860C2
:1008900080BD00001020C4F200000088C00788B1AD
:1008A000FFE71021C4F20001088820F00100088051
:1008B00040F26C01C2F200010868B0FA80F0400911
:1008C0000860FFE77047000040F21040C4F20000EB
:1008D0000088C00790B1FFE740F21041C4F2000168
:1008E000088820F00100088040F27001C2F2000187
:1008F0000868B0FA80F040090860FFE77047000020
:1009000081B08DF803009DF9030000280ED4FFE7A5
:100910009DF9031001F01F02012090404A094EF298
:100920000011CEF2000141F82200FFE701B070474C
:1009300082B08DF8070000919DF9070000280AD4C5
:10094000FFE7009800019DF907104EF20042CEF239
:10095000000288540BE0009800019DF8071001F098
:100960000F014EF61452CEF200028854FFE702B097
:100970007047000080B582B08DF807008DF8061032
:100980009DF807009DF806204E2100F06FFA02B096
:1009900080BD000080B582B0ADF80600BDF806004D
:1009A00038B9FFE7012002220023194600F09EF823
:1009B0000CE0BDF80600032807D1FFE70120032162
:1009C0000222002300F092F8FFE7FFE702B080BDAB
:1009D00080B582B0019000200090FFE70098019957
:1009E000884209D2FFE74FF47A7000F007F8FFE77A
:1009F000009801300090F1E702B080BD81B0009016
:100A000040F62401C4F2000100200880FFE740F610
:100A10002400C4F2000000880099884201D2FFE758
:100A2000F5E701B07047000080B590B08DF83F0049
:100A30000E919DF83F000E99FFF7CAFC0E99886A47
:100A4000C96A039102900E99086B496B0591049055
:100A50000E99886BC96B079106906420FFF7B8FF69
:100A60009DF83F000E99FFF7B3FC0E99886AC96A9A
:100A7000099108900E99086B496B0B910A900E9999
:100A8000886BC96B0D910C90089809990A9A0B9B79
:100A900000F04EFF0C9A0D9B00F04AFF009021F0F1
:100AA0000040019002980399049A059B01F06EFAA8
:100AB000069A079B01F06AFA024600980B460199D4
:100AC00023F0004301F062FA00220023C4F2540331
:100AD00001F066FB38B9FFE740F26801C2F200019D
:100AE00001200860FFE710B080BD000084B0ADF8C1
:100AF0000E00ADF80C1002920193BDF80E00012813
:100B000009D1FFE741F21801C4F20201086840F080
:100B1000040008601DE0BDF80E00022809D1FFE7BF
:100B200041F21801C4F20201086840F008000860B0
:100B30000EE0BDF80E00032809D1FFE741F21801CD
:100B4000C4F20201086840F010000860FFE7FFE708
:100B5000FFE7BDF80C00072860DCFFE7BDF80E00DA
:100B600001281AD1FFE7BDF80C0081000F2000FA20
:100B700001F240F60001C4F20101086890430860E8
:100B80000198BDF80C2093009840029A02339A40D5
:100B900002430868104308603FE0BDF80E000228D9
:100BA0001AD1FFE7BDF80C0081000F2000FA01F216
:100BB00040F60041C4F201010868904308600198C2
:100BC000BDF80C2093009840029A02339A400243E9
:100BD0000868104308601FE0BDF80E0003281AD112
:100BE000FFE7BDF80C0081000F2000FA01F241F28E
:100BF0000001C4F201010868904308600198BDF843
:100C00000C2093009840029A02339A4002430868ED
:100C100010430860FFE7FFE7FFE774E0BDF80E0050
:100C2000012821D1FFE7BDF80C006FF01F0202EB95
:100C300080010F2000FA01F340F60401C4F2010123
:100C40000868984308600198BDF80CC002EB8C025C
:100C50009040029A6FF01D0303EB8C039A4002430D
:100C60000868104308604DE0BDF80E00022821D14D
:100C7000FFE7BDF80C006FF01F0202EB80010F20B0
:100C800000FA01F340F60441C4F2010108689843F8
:100C900008600198BDF80CC002EB8C029040029AEB
:100CA0006FF01D0303EB8C039A4002430868104366
:100CB000086026E0BDF80E00032821D1FFE7BDF84B
:100CC0000C006FF01F0202EB80010F2000FA01F30D
:100CD00041F20401C4F201010868984308600198D8
:100CE000BDF80CC002EB8C029040029A6FF01D031D
:100CF00003EB8C039A400243086810430860FFE747
:100D0000FFE7FFE7FFE7029802283BD1FFE70198E2
:100D1000C0BBFFE7BDF80E0001460091012808D0D6
:100D2000FFE70098022811D0FFE7009803281AD0A7
:100D300026E0BDF80C10012000FA01F240F60C018B
:100D4000C4F201010868104308601AE0BDF80C10F5
:100D5000012000FA01F240F60C41C4F201010868DA
:100D6000104308600DE0BDF80C10012000FA01F2FC
:100D700041F20C01C4F2010108681043086000E070
:100D8000FFE7FFE704B0704784B0ADF80E00ADF8A0
:100D90000C10ADF80A20BDF80A0001282FD1FFE79A
:100DA000BDF80E0001460191012808D0FFE7019827
:100DB00002280ED0FFE70198032814D01DE0BDF8EB
:100DC0000C100120884040F61001C4F201010860B7
:100DD00014E0BDF80C100120884040F61041C4F228
:100DE000010108600AE0BDF80C100120884041F2C2
:100DF0001001C4F20101086000E0FFE734E0BDF833
:100E00000E0001460091012808D0FFE70098022853
:100E100010D0FFE70098032818D023E0BDF80C009D
:100E200000F110010120884040F61001C4F20101D8
:100E3000086018E0BDF80C0000F1100101208840A6
:100E400040F61041C4F2010108600CE0BDF80C004E
:100E500000F110010120884041F21001C4F20101AB
:100E6000086000E0FFE7FFE704B0704781B08DF84D
:100E700003008DF802108DF801209DF80300D8B909
:100E8000FFE79DF802009DF80110084345F210416C
:100E9000C4F200010880FFE745F21440C4F20000EC
:100EA00000888007002801D4FFE7F5E745F21840E5
:100EB000C4F20000008820E09DF8030001281BD147
:100EC000FFE79DF802009DF80110084345F6100168
:100ED000C4F200010880FFE745F61400C4F20000E8
:100EE00000888007002801D4FFE7F5E745F61800E1
:100EF000C4F200000088FFE7FFE7012001B070475F
:100F000081B08DF803008DF802109DF8030098B9A8
:100F1000FFE79DF8020045F21041C4F2000108808D
:100F2000FFE745F21440C4F20000008800060028E4
:100F300001D4FFE7F5E718E09DF80300012813D17D
:100F4000FFE79DF8020045F61001C4F20001088099
:100F5000FFE745F61400C4F20000008800060028F0
:100F600001D4FFE7F5E7FFE7FFE7012001B0704795
:100F700080B586B08DF81700ADF8141041F2180155
:100F8000C4F20201086840F0080008609DF81700EC
:100F900060BBFFE7022003900621032304931A4657
:100FA000FFF7A4FD0398049B07211A46FFF79EFD57
:100FB00041F21C01C4F20201086840F4001008600C
:100FC00045F20441C4F2000108200880BDF8140075
:100FD00045F21C41C4F20001088045F20041C4F210
:100FE0000001088840F00100088031E09DF81700FA
:100FF00001282CD1FFE7022001900A21032302934C
:101000001A46FFF773FD0198029B0B211A46FFF762
:101010006DFD41F21C01C4F20201086840F4800039
:10102000086045F60401C4F2000108200880BDF8FC
:10103000140045F61C01C4F20001088045F60001C9
:10104000C4F20001088840F001000880FFE7FFE7D4
:10105000012006B080BD000081B08DF803008DF83E
:1010600002109DF8030048BBFFE7FFE745F214407C
:10107000C4F2000000884006002801D4FFE7F5E72D
:1010800045F21040C4F2000000888DF801009DF880
:10109000020048B1FFE745F20041C4F200010888B0
:1010A00040F48060088008E045F20041C4F200018D
:1010B000088820F480600880FFE72EE09DF8030098
:1010C000012829D1FFE7FFE745F61400C4F200002C
:1010D00000884006002801D4FFE7F5E745F6100038
:1010E000C4F2000000888DF801009DF8020048B1AC
:1010F000FFE745F60001C4F20001088840F4806073
:10110000088008E045F60001C4F20001088820F4D8
:1011100080600880FFE7FFE7FFE79DF8010001B06E
:101120007047000081B08DF803009DF8030098B966
:10113000FFE745F20041C4F20001088840F48070E6
:101140000880FFE745F21440C4F200000088C007A1
:1011500008B9FFE7F6E718E09DF80300012813D16E
:10116000FFE745F60001C4F20001088840F48070F2
:101170000880FFE745F61400C4F200000088C007AD
:1011800008B9FFE7F6E7FFE7FFE7012001B0704786
:1011900081B08DF803009DF8030048B9FFE745F2E0
:1011A0000041C4F20001088840F4007008800EE09D
:1011B0009DF80300012809D1FFE745F60001C4F2BC
:1011C0000001088840F400700880FFE7FFE7012075
:1011D00001B0704780B58AB041F21801C4F2020133
:1011E000086840F00100086072B60821C4F20101ED
:1011F0000291086820F00F0008600868086040F25B
:101200000041C4F201010391086820F00100086068
:10121000086840F00100086040F20C41C4F201018E
:101220000491086840F00100086040F20841C4F2EF
:1012300001010591086820F0010008600620019076
:101240000021FFF775FB0198FFF75AFBDDF808C096
:10125000039B049A0599DCF8000020F0F000CCF81C
:101260000000DCF80000CCF80000186820F0020054
:101270001860186840F002001860106840F0020022
:101280001060086820F002000860DCF8000020F41C
:101290007040CCF80000DCF80000CCF800001868C2
:1012A00020F008001860186840F008001860106806
:1012B00040F008001060086820F00800086007206F
:1012C00006900221FFF734FB0698FFF719FB1C205C
:1012D00007900321FFF72CFB0798FFF711FB1D2058
:1012E00008900421FFF724FB0898FFF709FB092069
:1012F00009900121FFF71CFB0998FFF701FB62B67B
:101300000AB080BD80B586B08DF817008DF8161034
:101310009DF817000821049100F0EEFA0A200390CE
:10132000FFF76CFB9DF817000C21029100F0E4FA26
:1013300005200190FFF762FB9DF817009DF816103D
:1013400001F0F0010C3100F0D7FA0398FFF756FBDB
:101350009DF817009DF8161001F0F001083100F01B
:10136000CBFA1420FFF74AFB02999DF8170000F012
:10137000C3FA0198FFF742FB02999DF817009DF808
:10138000162062F3071100F0B7FA0398FFF736FB57
:1013900004999DF817009DF8162062F3071100F0DC
:1013A000ABFA06B080BD000080B586B08DF817009E
:1013B0008DF816109DF817000921049100F09CFA91
:1013C0000A200390FFF71AFB9DF817000D210291E8
:1013D00000F092FA05200190FFF710FB9DF817002E
:1013E0009DF8161001F0F0010D3100F085FA039818
:1013F000FFF704FB9DF817009DF8161001F0F001AF
:10140000093100F079FA1420FFF7F8FA02999DF8F3
:10141000170000F071FA0198FFF7F0FA02999DF8B1
:1014200017009DF8162062F3071100F065FA039883
:10143000FFF7E4FA04999DF817009DF8162062F36F
:10144000071100F059FA06B080BD000080B58AB0DF
:101450008DF827009DF827002D21FFF789FD142026
:10146000FFF7B6FA9DF827000821039100F044FA2F
:101470000A200490FFF7C2FA9DF827000C2106917C
:1014800000F03AFA05200890FFF7B8FA9DF8270017
:101490003C21019100F030FA0498FFF7AFFA9DF873
:1014A00027003821029100F027FA01200790FFF76A
:1014B0008FFA03999DF8270000F01EFA0498FFF7B1
:1014C0009DFA06999DF8270000F016FA0898FFF794
:1014D00095FA01999DF8270000F00EFA0498FFF79D
:1014E0008DFA02999DF8270000F006FA0798FFF799
:1014F0006FFA03999DF8270000F0FEF90498FFF7B2
:101500007DFA06999DF8270000F0F6F90898FFF794
:1015100075FA01999DF8270000F0EEF90498FFF79D
:101520006DFA02999DF8270000F0E6F90798FFF799
:101530004FFA03999DF8270000F0DEF90498FFF7B1
:101540005DFA06999DF8270000F0D6F90898FFF794
:1015500055FA9DF827002C21059100F0CDF904984B
:10156000FFF74CFA9DF82700282100F0C5F90599EE
:101570009DF82700FFF7C6FE0898FFF729FA06999D
:101580009DF82700FFF7BEFE0898FFF721FA07999C
:101590009DF82700FFF7B6FE0898FFF719FA9DF8A7
:1015A00027000221FFF7AEFE0898FFF711FA0AB0F4
:1015B00080BD000080B584B08DF80F008DF80E104E
:1015C0008DF80D2002930020ADF806009DF80E0066
:1015D000012804D1FFE70020ADF8060009E09DF8DE
:1015E0000E00022804D1FFE74020ADF80600FFE717
:1015F000FFE79DF80F00BDF806109DF80D2011447F
:101600008031C9B2FFF77EFE6420FFF7F7F99DF83D
:101610000F00029900F002F804B080BD80B584B0DC
:101620008DF80F00029100200190FFE702980199C8
:10163000405C70B1FFE79DF80F000299019A895C48
:10164000FFF7B2FE0198013001906420FFF7D6F950
:10165000ECE704B080BD000080B582B00190019835
:10166000022807D1FFE70120002202231946FFF7D5
:101670003DFA06E00521002202231846FFF736FA5C
:10168000FFE702B080BD000081B000900098022802
:1016900007D1FFE740F61401C4F2010104200860FD
:1016A00006E040F61441C4F2010120200860FFE783
:1016B00001B0704780B582B001900198022806D130
:1016C000FFE7022101221046FFF75EFB05E0022042
:1016D00005210122FFF758FBFFE702B080BD0000A3
:1016E00080B5A8B0002002902790FEF7A3FF00F07D
:1016F0007FF802982D210091FFF73AFC0099012014
:101700000190FFF735FC0298FFF7A0FE0198FEF765
:10171000FFFD0298FFF73EF90320FFF73BF9052094
:10172000FFF79AFF0220FFF797FFFFF753FDFFE750
:1017300040F27400C2F200000068012844D1FFE7C3
:10174000012010A9FFF770F940F26C00C2F200000E
:101750000068012804D1FFE70520FFF7ABFF03E095
:101760000520FFF791FFFFE740F26800C2F200009A
:10177000006801281AD1FFE742F2D513C0F6000332
:10178000012100221046FFF715FF40F27000C2F25F
:1017900000000068012804D1FFE70220FFF78AFF5C
:1017A00003E00220FFF770FFFFE70CE042F2CC13EA
:1017B000C0F60003012100221046FFF7FBFE0220C5
:1017C000FFF762FFFFE712E040F26801C2F200019A
:1017D000002008600121FFF795FD6420FFF7F8F86D
:1017E0000220FFF751FF0520FFF74EFFFFE79FE7BD
:1017F00080B541F21C0CC4F2020CDCF8000040F091
:101800000400CCF8000040F20001C2F200010868B8
:101810004DF68362C4F21B32A0FB02024FF0FF3090
:1018200000EB924240F62803C4F200031A8040F60F
:101830002C03C4F200034FF6FF721A8040F6000337
:10184000C4F2000301221A80DCF8002042F00102F9
:10185000CCF800200B6844F6D352C1F26202A3FB1D
:1018600002E300EB931340F2280EC4F2000EAEF830
:10187000003040F22C0EC4F2000E41F28733AEF875
:10188000003040F20C0EC4F2000EBEF8003043F0FF
:101890000103AEF800304FF0804EBEF8003043F048
:1018A0000103AEF80030DCF8003043F00203CCF85E
:1018B00000300968A1FB022100EB911040F22841A1
:1018C000C4F20001088040F22C41C4F2000140F251
:1018D000E730088040F20C41C4F20001088840F073
:1018E0000100088040F20041C4F20001088840F085
:1018F0000100088080BD000080B582B08DF807002F
:101900008DF806109DF80700FFF70CFC9DF8070006
:101910000021FFF72FF89DF807009DF80610FFF74C
:10192000EFFA9DF80700FFF733FC02B080BD00001E
:1019300010B591EA030F48BF83F0004300F12E83F6
:10194000841A71EB030C05D2121943EB0C03001B34
:1019500061EB0C014FEA1154A4EB135CDFF81CE1BE
:101960001EEA430F18BF9EEA445F00F0748021EA2C
:10197000045123EA0E0343F48013DCF1200E32D32A
:1019800022FA0CFE10EB0E0023FA0CFE41EB0E01C6
:10199000CCF1200E03FA0EFE10EB0E00CCF1200E5F
:1019A00051F10001B1F5801F32D201EB045112FA5E
:1019B0000EF2BDE8104058BF7047401C38BF5FEAC8
:1019C000420218BF7047002814BF20F0010041F107
:1019D00000014FEA410313F5001F38BF7047A1F122
:1019E000C04100F0CDBA012A43EB0302ACF1200C58
:1019F000DCF11F0E32BF4FF0000E23FA0CF310EB98
:101A0000030041EB0451B4EB115FD0D0A1EB0451C2
:101A100001F58011490801EB04515FEA30000ED353
:101A200050F1000038BF12FA0EFE08D1BDE8104098
:101A3000C9E7401C38BF5FEA4202CAD1C3E7BDE82C
:101A400010404FEA410313F5001F38BF7047A1F162
:101A5000C04100F095BA9EEA445F08D011EA5E0FDB
:101A6000BDE8104004BF01F0004100207047BDE810
:101A7000104070B500F036FA64FBBE3E0000E0FF97
:101A8000491058BFC1F140415B1058BFC3F14043FA
:101A90008B42EFF3008070472DE9C04130B4DFF88E
:101AA000A4C23CEA111418BF3CEA131400F0ED8004
:101AB0001CEA111481EA030544EAD57418BF1CEA34
:101AC000131500F0C880A4EB050404F17F7404F53D
:101AD00000344FF0004545EAC12145EAC32341EAFD
:101AE000505143EA52534FEAC0204FEAC222994272
:101AF00008BF904200F09D804FEA13650FF2441634
:101B0000765D4FEA134506FB05F7C7F1807706FBC4
:101B100007F74FEAD737A7FB03687642A7FB06CE45
:101B2000C8F5803838BFA8F1010807FB08E6A6FB16
:101B3000028C4FF0000EE6FB03CEDCF1000CCEF180
:101B4000004E38BFAEF1010EA6FB0C584FF0000757
:101B5000E6FB0E87A1FB08C6A0FB07CE16EB0E0620
:101B60004FF0000545F10005E1FB076515F1E04E7A
:101B70007EBFA4F580345FEA46066D4116F180070A
:101B800045F100054FEA172747EA05674FEA152593
:101B90004FEA0666A6F1DE46B6F1805F20D93846E8
:101BA00005EBC47124F0010C01EB0C11BCF1FE6FCC
:101BB00002D8F0BCBDE8008124425CBF01F5801E64
:101BC0009EEAC47F02D4F0BCBDE80081244200F14B
:101BD0003980A1F1C041F0BCBDE8004100F0D0B9AE
:101BE0004FEAD02040EA41504FEAD1214FEAD222B9
:101BF00042EA43524FEAD323A7FB028607FB036660
:101C000005FB02661EEA0E0F58BFA6EB0056B6EBA8
:101C100000564FEA520E4EEAC37E18EB0E0E56EBFC
:101C2000530EBCD518EB02085E417F1C55F1000530
:101C3000B5E74FF480154FF000074FF000064FF066
:101C40000008ACE701F1C04101F000414FF0000095
:101C5000F0BCBDE800810CEA131511EA0C1F00D09E
:101C60000CE013EA0C1F00F026804FF0000081EA20
:101C7000030101F00041F0BCBDE80081F0BCBDE80B
:101C8000004181EA030100F07BB9F0BCBDE80041EE
:101C900070B500F027F900BF097EFC3E00F007B8E0
:101CA0004FF0000081EA030101F00041704781EA32
:101CB000030100F065B9F0BCBDE8004122494FF0D6
:101CC00000007047FFFDFBF9F7F5F4F2F0EEEDEBE5
:101CD000E9E8E6E4E3E1E0DEDDDBDAD8D7D5D4D32A
:101CE000D1D0CFCDCCCBCAC8C7C6C5C4C2C1C0BF76
:101CF000BEBDBCBBBAB9B8B7B6B5B4B3B2B1B0AF7C
:101D0000AEADACABAAA9A8A8A7A6A5A4A3A3A2A15F
:101D1000A09F9F9E9D9C9C9B9A999998979796951A
:101D200095949393929191908F8F8E8E8D8C8C8BB6
:101D30008B8A89898888878786858584848383823E
:101D4000828181800000FF070000F87F51EA030CC8
:101D500017D41CF5801F58BFBCF5801F00F106800A
:101D6000994218BF704708BF9042704707D711F5D6
:101D7000801F58BF13F5801F19D4994270478942BC
:101D800070471CF5801F08D5BCF5801FF7D58B4226
:101D900018BF704708BF824270474FF4001C1CEB0D
:101DA000410F38BF1CEB430F01D28B42704770B517
:101DB00000F098F8922449004FF000514FF0805302
:101DC000FFF75EBE10F0004248BF4042B0FA80F319
:101DD00010FA03F10AD0C3F11D0303F5806302EB8F
:101DE00003524FEA415002EBD12170474FF00000FF
:101DF0007047000051EA030C17D41CF5801F58BF30
:101E0000BCF5801F00F10680994218BF704708BFDB
:101E10009042704707D711F5801F58BF13F5801FF8
:101E200019D499427047894270471CF5801F08D524
:101E3000BCF5801FF7D58B4218BF704708BF8242A0
:101E400070474FF4001C1CEB410F38BF1CEB430FD5
:101E500001D28B42704770B500F044F892244900DB
:101E60004FF080514FF00053FFF70ABE51EA030CC8
:101E700017D41CF5801F58BFBCF5801F00F10680E9
:101E8000994218BF704708BF9042704707D711F5B5
:101E9000801F58BF13F5801F19D49942704789429B
:101EA00070471CF5801F08D5BCF5801FF7D58B4205
:101EB00018BF704708BF824270474FF4001C1CEBEC
:101EC000410F38BF1CEB430F01D28B42704770B5F6
:101ED00000F008F8922449004FF000514FF0805371
:101EE000FFF7CEBD0EF1020E2EF0030E5EF8046B6E
:101EF000364205D4012A43EB030515F5001F12D81D
:101F0000012841EB010C1CF5001F0CD80ED14FEA43
:101F1000D17C0CEB4C0C0CF1020C15F5001F08BF2A
:101F20004CEBD37C04E04FF0080C01E04FEAD37C8B
:101F30000CEB4C0526FA05F606F00706B6F1040C84
:101F400006D20EEB860CBDE870404CF0010C6047E9
:101F5000DFE80CF0090B02024FF00041A1F500216F
:101F60004FF0000070BD19461046012851EB0104E6
:101F700018BFD4F5001484BF002001F0004170BDEB
:101F80000808A0F500114FEA3101704710B591EA39
:101F9000030F48BF83F000433FF5D2AC841A71EBC6
:101FA000030C07D28CF0004C121943EB0C03001BFE
:101FB00061EB0C014FEA1154A4EB135CDFF8A4E1D0
:101FC0001EEA430F18BF9EEA445F00F0B48021EA86
:101FD000045123EA6E035242C3EB6E0338BF5B1E0B
:101FE000DCF1200E25D322FA0CFE10EB0E0043FA92
:101FF0000CFE41EB0E01CCF1200E03FA0EFE10EBAD
:102000000E00CCF1200E51F1000129D401EB045156
:1020100012FA0EF2BDE8104058BF7047401C1CBFBA
:10202000B2F1004F704700280CBF491C20F001009E
:10203000704712EB020E43EB030218BF4FF0010E84
:102040004EEA4202ACF1200CDCF11E0E56D943FAE6
:102050000CFE10EB0E00CCF11E0E51F1FF31D5D568
:102060000EF1010E12FA0EFE404141EB010101EBAF
:10207000445C5FEA5C5C10D901EB045110EBDE704C
:1020800038BFBEF1004FBDE8104018BF70470028B0
:102090000CBF491C20F00100704734D24FEAD42C09
:1020A00024F4006411F500111BD0B1FA81F20B3A4F
:1020B000A41AA41ED2F12003914030FA03F319436D
:1020C000904001EBCC7101EB0451002CBDE81040B5
:1020D000A8BF704701F1C04101F000414FF000007E
:1020E0007047B0FA80F310FA03F102D1BDE8104056
:1020F0007047E41A173C4805C90AE2E701EB0451AE
:10210000BDE81040704749104FEA300001EB045120
:10211000BDE8104002E04FF0000170474A0008BFE0
:102120000042F8D0B2F5001F28BF704701F000410F
:102130004FF0000070479EEA445F07D011EA5E0F3F
:10214000BDE8104004BF002100207047BDE81040EA
:1021500070B5FFF7C7FE00BF40DFF63E104683F0C4
:10216000004170470000E0FF10B5FFF7EFFD0CBF26
:102170000120002010BD10B5FFF7E8FD14BF0120BD
:10218000002010BD10B5FFF735FE8CBF01200020E8
:1021900010BD10B5FFF72EFE2CBF0120002010BD92
:1021A00010B5FFF763FE94BF0120002010BD10B5ED
:1021B000FFF75CFE34BF0120002010BD00000000CE
:1021C0000000000001020304060708094E4F524DAB
:1021D000414C212100594F552046414C4C000000F4
:1021E0000022000800000020040000005001000848
:1021F000042200080800002070060000700100089A
:0422000000A24A04EA
:04000005080001B539
:00000001FF
