:020000040800F2
:1000000080060020B5010008BD010008BF010008FE
:10001000C1010008C3010008C5010008000000007C
:10002000000000000000000000000000C701000800
:10003000C901000800000000CB010008CD01000844
:10004000CF010008CF010008CF010008CF01000850
:10005000CF010008CF0100088D020008CF01000881
:10006000CF010008C5020008CF010008CF01000839
:10007000CF010008CF010008CF010008CF01000820
:10008000CF010008CF010008CF010008CF01000810
:10009000CF010008CF010008CF010008CF01000800
:1000A000CF010008CF010008CF010008CF010008F0
:1000B00071090008A5090008CF010008CF01000858
:1000C000CF010008CF010008CF010008CF010008D0
:1000D000CF010008CF010008CF010008CF010008C0
:1000E000CF010008CF010008CF01000800F002F89E
:1000F00000F050F814A696E8000CB244B344DA4578
:1001000001D100F047F8BAE80F000FA696E83000DA
:10011000A5EB040504EB0607AAEB0704A7F101070A
:100120004FEA15154FEA3414A4F10104AC4201D38F
:1001300000F030F813F0010F18BFFB1A43F0010371
:1001400000F001F8DBE71847E4300000043100005C
:10015000103A24BF78C878C1FAD8520724BF30C8F3
:1001600030C144BF04680C60704700007047000055
:100170000023002400250026103A28BF78C1FBD8B0
:10018000520728BF30C148BF0B6070471FB51FBD65
:1001900010B510BD00F044F81146FFF7F7FF01F06D
:1001A00089FA00F062F803B4FFF7F2FF03BC00F035
:1001B00065F800000948804709480047FEE7FEE768
:1001C000FEE7FEE7FEE7FEE7FEE7FEE7FEE7FEE707
:1001D00004480549054A064B704700000909000814
:1001E000ED00000880000020800600208002002032
:1001F0008002002070477047704710B500F008F883
:10020000006810BD10B5044600F002F8046010BD8F
:100210000048704708000020004870470800002090
:100220007546FFF7F9FFAE4605006946534620F0D4
:100230000700854618B020B5FFF7CAFFBDE820408B
:100240004FF000064FF000074FF000084FF0000B92
:10025000AC46ACE8C009ACE8C009ACE8C009ACE801
:10026000C00921F007018D46704710B50446AFF371
:1002700000802046BDE81040FFF795BF01491820D7
:10028000ABBEFEE7260002007047000040F21440BB
:10029000C4F201000068C00790B1FFE740F21441CA
:1002A000C4F20101086840F00100086040F27401E6
:1002B000C2F200010868B0FA80F040090860FFE768
:1002C0007047000040F21440C4F2010000680007CB
:1002D00000280FD5FFE740F21441C4F2010108687D
:1002E00040F00800086040F26801C2F200010020FE
:1002F0000860FFE77047000080B582B08DF8070006
:100300009DF80700752100F025F88DF806009DF88E
:1003100007006B21012200F041F99DF80700192127
:100320000022009200F03AF9009A9DF807001A2185
:1003300000F034F99DF807001B21082200F02EF987
:10034000009A9DF807001C2100F028F99DF806008E
:1003500002B080BD80B584B08DF80F008DF80E100E
:100360009DF80F0000F0ECFE9DF80F00D0210191E8
:100370000022029200F088FD9DF80F009DF80E10FB
:1003800000F0CCFD9DF80F0000F0DAFE01999DF819
:100390000F00012200F078FD02999DF80F0000F097
:1003A00069FE8DF80D009DF80F0000F0FFFE9DF82E
:1003B0000D0004B080BD000080B58AB08DF8270024
:1003C00008919DF827003B21FFF7C4FF8DF81A0024
:1003D0009DF827003C21FFF7BDFF8DF81B009DF81D
:1003E00027003D21FFF7B6FF8DF81C009DF8270080
:1003F0003E21FFF7AFFF8DF81D009DF827003F213C
:10040000FFF7A8FF8DF81E009DF827004021FFF799
:10041000A1FF8DF81F009DF81A109DF81B0040EAFF
:100420000120089908809DF81C109DF81D0040EAE5
:100430000120089948809DF81E109DF81F0040EA91
:1004400001200899888008980190B0F9000002F016
:100450004DFA002204920023C4F2D003029302F06A
:10046000AFF80A4601994A61086108980390B0F90B
:10047000020002F03BFA029B049A02F0A1F80A463D
:100480000399CA61886108980590B0F9040002F0E8
:100490002DFA049A42F60013C4F2CC0302F090F84D
:1004A0000A4605994A6208620AB080BD80B58AB0E2
:1004B0008DF8270008919DF827004321FFF74AFF98
:1004C0008DF81A009DF827004421FFF743FF8DF8AF
:1004D0001B009DF827004521FFF73CFF8DF81C000D
:1004E0009DF827004621FFF735FF8DF81D009DF888
:1004F00027004721FFF72EFF8DF81E009DF82700EB
:100500004821FFF727FF8DF81F009DF81A109DF86E
:100510001B0040EA01200899C8809DF81C109DF836
:100520001D0040EA0120089908819DF81E109DF8E1
:100530001F0040EA01200899488108980190B0F90D
:10054000060002F0D3F90022039246F20003C4F23F
:100550005003049302F034F80A460199CA62886293
:1005600008980290B0F9080002F0C0F9039A049BC1
:1005700002F026F80A4602994A6308630898059033
:10058000B0F90A0002F0B2F9039A049B02F018F8DD
:100590000A460599CA6388630AB080BD80B582B0F7
:1005A0008DF807008DF806108DF805209DF80700DE
:1005B00000F0C6FD9DF80700D021002200F064FC89
:1005C0009DF807009DF8061000F0A8FC9DF80700B4
:1005D0009DF8051000F0A2FC9DF8070000F0E6FD74
:1005E00002B080BD80B500F001F880BD84B000206D
:1005F0000390029041F20001C4F20201086840F445
:1006000080300860FFE741F20000C4F20200006899
:1006100000F400300290039801300390FFE7029944
:100620000020019039B9FFE70398B0F5A06018BF2A
:1006300001200190FFE70198C0070028E3D1FFE700
:1006400041F20000C4F2020000688003002803D5D4
:10065000FFE70120029002E000200290FFE70298ED
:10066000012851D1FFE742F20001C4F202010868FB
:1006700040F010000860086820F007000860086873
:1006800040F00200086041F20401C4F2020100914E
:100690000868086008680860086840F480600860BE
:1006A000086820F47C100860086840F4E8100860CE
:1006B00041F20001C4F20201086840F08070086055
:1006C000FFE741F20000C4F2020000688001002848
:1006D00001D4FFE7F5E741F20401C4F20201086822
:1006E00020F003000860086840F002000860FFE79F
:1006F00041F20400C4F20200006800F00C00082877
:1007000001D0FFE7F4E700E0FFE704B07047000026
:1007100080B582B041F20001C4F20201086840F0E5
:1007200001000860FFE741F20000C4F20200006827
:100730008003002801D4FFE7F5E742F20001C4F28C
:100740000201086840F010000860086820F0070007
:100750000860086840F00200086041F20401C4F239
:100760000201086840F480300860086840F4101006
:10077000086041F20001C4F20201086840F0807094
:100780000860FFE741F20000C4F202000068800147
:10079000002801D4FFE7F5E741F20401C4F20201A9
:1007A000019108680860086840F4007008600868F3
:1007B0000860086820F003000860086840F0020044
:1007C0000860FFE741F20400C4F20200006800F094
:1007D0000C00082801D0FFE7F4E700F003F802B0AE
:1007E00080BD000084B0002003900290019041F28F
:1007F0000400C4F20200006800F00C0003900398AB
:10080000009040B1FFE7009804280ED0FFE7009861
:10081000082814D056E040F20001C2F2000141F273
:100820000020C0F27A00086056E040F20001C2F2F7
:10083000000141F20020C0F27A0008604CE041F271
:100840000400C4F20200016801F470110291006812
:1008500000F4803001900299022000EB9140029058
:10086000019860B9FFE7029840F60011C0F23D011F
:10087000484340F20001C2F20001086021E041F269
:100880000400C4F202000068800300280CD5FFE7D2
:10089000029840F60011C0F23D01484340F20001C9
:1008A000C2F2000108600BE0029841F20021C0F2A0
:1008B0007A01484340F20001C2F200010860FFE7FC
:1008C000FFE709E040F20001C2F2000141F200201E
:1008D000C0F27A000860FFE741F20400C4F20200AF
:1008E0000068C0B2010943F20820C0F60000405C75
:1008F0000390039A40F20001C2F200010868D04060
:10090000086004B07047000080B541F20002C4F2F4
:100910000202106840F00100106041F20401C4F2CC
:10092000020108680023CFF6FF0318400860106832
:100930004FF6FF73CFF6F66318401060106820F48E
:1009400080201060086820F4FE00086041F2080171
:10095000C4F202014FF41F000860FFF743FE4EF699
:100960000851CEF200014FF00060086080BD000029
:100970001020C4F200000088C00788B1FFE71021F2
:10098000C4F20001088820F00100088040F26C01E8
:10099000C2F200010868B0FA80F040090860FFE781
:1009A0007047000040F21040C4F200000088C00709
:1009B00090B1FFE740F21041C4F20001088820F036
:1009C0000100088040F27001C2F200010868B0FA2C
:1009D00080F040090860FFE77047000081B08DF8A3
:1009E00003009DF9030000280ED4FFE79DF90310D2
:1009F00001F01F02012090404A094EF20011CEF290
:100A0000000141F82200FFE701B0704782B08DF885
:100A1000070000919DF9070000280AD4FFE700981D
:100A200000019DF907104EF20042CEF200028854F8
:100A30000BE0009800019DF8071001F00F014EF641
:100A40001452CEF200028854FFE702B07047000053
:100A500080B582B08DF807008DF806109DF807006C
:100A60009DF806204E2100F00FFA02B080BD000074
:100A700080B582B0ADF80600BDF8060038B9FFE7D2
:100A8000012002220023194600F070F90CE0BDF8A5
:100A90000600032807D1FFE70120032102220023DB
:100AA00000F064F9FFE7FFE702B080BD80B582B0D7
:100AB000019000200090FFE700980199884209D238
:100AC000FFE74FF47A7000F007F8FFE70098013075
:100AD0000090F1E702B080BD81B0009040F62401A3
:100AE000C4F2000100200880FFE740F62400C4F2B1
:100AF000000000880099884201D2FFE7F5E701B0C5
:100B00007047000082B0ADF80600BDF8060001464F
:100B10000091012808D0FFE7009802280DD0FFE7D8
:100B20000098032812D01AE041F21801C4F2020121
:100B3000086840F00400086011E041F21801C4F2B6
:100B40000201086840F00800086008E041F218015E
:100B5000C4F20201086840F010000860FFE702B02C
:100B60007047000080B59CB08DF86F001A919DF819
:100B70006F001A99FFF720FC9DF86F001A99FFF794
:100B800095FC1A9908694969159114901A99886910
:100B9000C969179116901A99086A496A19911890AB
:100BA0001A99886AC96A0F910E901A99086B496B55
:100BB000119110901A99886BC96B13911290149827
:100BC0001599002206924FF08043079300F020FF12
:100BD000069A079B009001911698179900F018FF4C
:100BE000024600980B46019901F02EFC069A079BDD
:100BF000029003911898199900F00AFF0246029892
:100C00000B46039901F020FC01F0F8FB069A079BC4
:100C10000D910C900E980F9900F0FAFE069A079B22
:100C2000049005911098119900F0F2FE0246049884
:100C30000B46059901F008FC069A079B089009915C
:100C40001298139900F0E4FE024608980B460999A1
:100C500001F0FAFB01F0D2FB0B910A900C980D9970
:100C600049F69A12C9F6991249F69913C3F6E17337
:100C700002F0F5F938B9FFE740F27801C2F200015D
:100C80000120087042E040F27800C2F200000078D3
:100C9000C00720B3FFE70C980D994FF0663246F27B
:100CA0006663C3F6F67302F0E1F9C0B9FFE740F2FC
:100CB0007800C2F20000002202700A980B994EF2EE
:100CC0000003C4F2750302F0D1F938B9FFE740F22E
:100CD0006801C2F2000101200860FFE715E00C98EE
:100CE0000D9949F69A12C9F6991249F69913C3F665
:100CF000E17302F0BBF938B9FFE740F27801C2F2C4
:100D0000000100200870FFE7FFE7FFE76420FFF71E
:100D1000CDFE1CB080BD000083B0ADF80600BDF86C
:100D2000060001460091012808D0FFE7009802283C
:100D30000AD0FFE7009803280CD011E040F600002D
:100D4000C4F2010002900EE040F60040C4F201003F
:100D5000029008E041F20000C4F20100029002E0BB
:100D600000200290FFE7029803B0704780B584B07E
:100D7000ADF80E00ADF80C1002920193BDF80E0014
:100D8000FFF7C0FEBDF80E00FFF7C6FF0090009809
:100D900008B9FFE74EE0BDF80C00072819DCFFE7B3
:100DA000BDF80C0081000F2000FA01F200990868DC
:100DB000904308600198BDF80C108A009040029999
:100DC0000232914040EA010200990868104308602D
:100DD0001FE0BDF80C006FF01F0101EB80020F2037
:100DE00000FA02F3009A5068984350600198BDF8E9
:100DF0000C3001EB8301884002996FF01D0202EB79
:100E00008302914040EA010200994868104348601B
:100E1000FFE7029802280DD1FFE7019850B9FFE7DC
:100E2000BDF80C10012000FA01F20099C8681043C7
:100E3000C860FFE704B080BD80B584B0ADF80E0097
:100E4000ADF80C10ADF80A20BDF80E00FFF764FFF6
:100E50000190019808B9FFE714E0BDF80A000128E5
:100E600007D1FFE7BDF80C10012088400199086107
:100E700008E0BDF80C0000F1100101208840019944
:100E80000861FFE704B080BD81B08DF803008DF8E4
:100E900002108DF801209DF80300D8B9FFE79DF8F6
:100EA00002009DF80110084345F21041C4F2000110
:100EB0000880FFE745F21440C4F200000088800774
:100EC000002801D4FFE7F5E745F21840C4F200001E
:100ED000008820E09DF8030001281BD1FFE79DF862
:100EE00002009DF80110084345F61001C4F200010C
:100EF0000880FFE745F61400C4F200000088800770
:100F0000002801D4FFE7F5E745F61800C4F2000019
:100F10000088FFE7FFE7012001B0704781B08DF83E
:100F200003008DF802109DF8030098B9FFE79DF8C3
:100F3000020045F21041C4F200010880FFE745F2CB
:100F40001440C4F2000000880006002801D4FFE726
:100F5000F5E718E09DF80300012813D1FFE79DF89D
:100F6000020045F61001C4F200010880FFE745F6D3
:100F70001400C4F2000000880006002801D4FFE736
:100F8000F5E7FFE7FFE7012001B0704780B586B0C5
:100F90008DF81700ADF8141041F21801C4F20201E7
:100FA000086840F0080008609DF8170060BBFFE784
:100FB000022003900621032304931A46FFF7D6FE6E
:100FC0000398049B07211A46FFF7D0FE41F21C014B
:100FD000C4F20201086840F40010086045F20441C0
:100FE000C4F2000108200880BDF8140045F21C413D
:100FF000C4F20001088045F20041C4F200010888F3
:1010000040F00100088031E09DF8170001282CD144
:10101000FFE7022001900A21032302931A46FFF7FB
:10102000A5FE0198029B0B211A46FFF79FFE41F295
:101030001C01C4F20201086840F48000086045F613
:101040000401C4F2000108200880BDF8140045F630
:101050001C01C4F20001088045F60001C4F2000141
:10106000088840F001000880FFE7FFE7012006B094
:1010700080BD000081B08DF803008DF802109DF84E
:10108000030048BBFFE7FFE745F21440C4F200004D
:1010900000884006002801D4FFE7F5E745F210403C
:1010A000C4F2000000888DF801009DF8020048B1EC
:1010B000FFE745F20041C4F20001088840F4806077
:1010C000088008E045F20041C4F20001088820F4DD
:1010D00080600880FFE72EE09DF80300012829D1F9
:1010E000FFE7FFE745F61400C4F200000088400661
:1010F000002801D4FFE7F5E745F61000C4F2000030
:1011000000888DF801009DF8020048B1FFE745F620
:101110000001C4F20001088840F48060088008E003
:1011200045F60001C4F20001088820F480600880C0
:10113000FFE7FFE7FFE79DF8010001B070470000FF
:1011400081B08DF803009DF8030098B9FFE745F2E0
:101150000041C4F20001088840F480700880FFE775
:1011600045F21440C4F200000088C00708B9FFE748
:10117000F6E718E09DF80300012813D1FFE745F6D4
:101180000001C4F20001088840F480700880FFE785
:1011900045F61400C4F200000088C00708B9FFE754
:1011A000F6E7FFE7FFE7012001B0704781B08DF857
:1011B00003009DF8030048B9FFE745F20041C4F27F
:1011C0000001088840F4007008800EE09DF80300DC
:1011D000012809D1FFE745F60001C4F200010888A3
:1011E00040F400700880FFE7FFE7012001B070477E
:1011F00080B586B041F21801C4F20201086840F0DF
:101200000100086072B640F2080CC4F2010CDCF870
:10121000000020F00F00CCF80000DCF80000CCF853
:10122000000040F20043C4F20103186820F00100FE
:101230001860186840F00100186040F20C42C4F2D7
:101240000102106840F00100106040F20841C4F251
:101250000101086820F001000860DCF8000020F4BB
:101260007040CCF80000DCF80000CCF800001868F2
:1012700020F008001860186840F008001860106836
:1012800040F008001060086820F0080008600620A0
:1012900001900021FFF7BAFB0198FFF79FFB09209F
:1012A00002900121FFF7B2FB0298FFF797FB1C2089
:1012B000039002210491FFF7A9FB0398FFF78EFB2F
:1012C00004991D200590FFF7A1FB0598FFF786FB09
:1012D00062B606B080BD000080B586B08DF81700FC
:1012E0008DF816109DF817000821049100F0ECFA13
:1012F0000A200390FFF7F0FB9DF817000C210291E4
:1013000000F0E2FA05200190FFF7E6FB9DF81700D8
:101310009DF8161001F0F0010C3100F0D5FA039899
:10132000FFF7DAFB9DF817009DF8161001F0F001A9
:10133000083100F0C9FA1420FFF7CEFB02999DF89E
:10134000170000F0C1FA0198FFF7C6FB02999DF85B
:1013500017009DF8162062F3071100F0B5FA039804
:10136000FFF7BAFB04999DF817009DF8162062F369
:10137000071100F0A9FA06B080BD000080B586B064
:101380008DF817008DF816109DF8170009210491AB
:1013900000F09AFA0A200390FFF79EFB9DF81700D1
:1013A0000D21029100F090FA05200190FFF794FBC7
:1013B0009DF817009DF8161001F0F0010D3100F0B6
:1013C00083FA0398FFF788FB9DF817009DF8161025
:1013D00001F0F001093100F077FA1420FFF77CFBEF
:1013E00002999DF8170000F06FFA0198FFF774FB5F
:1013F00002999DF817009DF8162062F3071100F07E
:1014000063FA0398FFF768FB04999DF817009DF8AD
:10141000162062F3071100F057FA06B080BD0000F5
:1014200080B58AB08DF827009DF827002D21FFF7A1
:10143000ADFD1420FFF73AFB9DF82700082103912A
:1014400000F042FA0A200490FFF746FB9DF82700BF
:101450000C21069100F038FA05200890FFF73CFBBC
:101460009DF827003C21019100F02EFA0498FFF727
:1014700033FB9DF827003821029100F025FA012066
:101480000790FFF713FB03999DF8270000F01CFA63
:101490000498FFF721FB06999DF8270000F014FA45
:1014A0000898FFF719FB01999DF8270000F00CFA46
:1014B0000498FFF711FB02999DF8270000F004FA49
:1014C0000798FFF7F3FA03999DF8270000F0FCF95D
:1014D0000498FFF701FB06999DF8270000F0F4F946
:1014E0000898FFF7F9FA01999DF8270000F0ECF948
:1014F0000498FFF7F1FA02999DF8270000F0E4F94B
:101500000798FFF7D3FA03999DF8270000F0DCF95C
:101510000498FFF7E1FA06999DF8270000F0D4F946
:101520000898FFF7D9FA9DF827002C21059100F0C3
:10153000CBF90498FFF7D0FA9DF82700282100F096
:10154000C3F905999DF82700FFF7C6FE0898FFF735
:10155000ADFA06999DF82700FFF7BEFE0898FFF741
:10156000A5FA07999DF82700FFF7B6FE0898FFF740
:101570009DFA9DF827000221FFF7AEFE0898FFF7BD
:1015800095FA0AB080BD000080B584B08DF80F00D8
:101590008DF80E108DF80D2002930020ADF8060096
:1015A0009DF80E00012804D1FFE70020ADF80600E9
:1015B00009E09DF80E00022804D1FFE74020ADF8B5
:1015C0000600FFE7FFE79DF80F00BDF806109DF845
:1015D0000D2011448031C9B2FFF77EFE6420FFF771
:1015E0007BFA9DF80F00029900F002F804B080BD6C
:1015F00080B584B08DF80F00029100200190FFE7C4
:1016000002980199405C70B1FFE79DF80F000299C4
:10161000019A895CFFF7B2FE0198013001906420C5
:10162000FFF75AFAECE704B080BD000080B582B045
:1016300001900198022807D1FFE701200022022330
:101640001946FFF793FB06E0052100220223184606
:10165000FFF78CFBFFE702B080BD000081B0009077
:101660000098022807D1FFE740F61401C4F20101F7
:101670000420086006E040F61441C4F20101202075
:101680000860FFE701B0704780B582B00190019813
:10169000022806D1FFE7022101221046FFF7CCFB0A
:1016A00005E0022005210122FFF7C6FBFFE702B09B
:1016B00080BD000080B59CB0002003901B90FFF718
:1016C00027F800F07FF803982D210191FFF75EFCC9
:1016D000019901200290FFF759FC0398FFF7A0FE43
:1016E0000298FEF709FE0398FFF7C2F90320FFF7FF
:1016F000BFF90520FFF79AFF0220FFF797FFFFF7DA
:1017000077FDFFE740F27400C2F200000068012894
:1017100044D1FFE7012004A9FFF724FA40F26C004E
:10172000C2F200000068012804D1FFE70520FFF79E
:10173000ABFF03E00520FFF791FFFFE740F26800F1
:10174000C2F20000006801281AD1FFE743F221230A
:10175000C0F60003012100221046FFF715FF40F2FA
:101760007000C2F200000068012804D1FFE70220E7
:10177000FFF78AFF03E00220FFF770FFFFE70CE0AE
:1017800043F21823C0F60003012100221046FFF7A0
:10179000FBFE0220FFF762FFFFE712E040F2680164
:1017A000C2F20001002008600121FFF795FD6420CE
:1017B000FFF77CF90220FFF751FF0520FFF74EFFEE
:1017C000FFE79FE780B541F21C0CC4F2020CDCF885
:1017D000000040F00400CCF8000040F20001C2F22A
:1017E000000108684DF68362C4F21B32A0FB0203BD
:1017F0004FF0FF3000EB934340F6280EC4F2000E8A
:10180000AEF8003040F62C0EC4F2000E4FF6FF7317
:10181000AEF8003040F6000EC4F2000E0123AEF820
:101820000030DCF8003043F00103CCF800300B68E6
:10183000A3FB02E300EB934340F2280EC4F2000E38
:10184000AEF8003040F22C0EC4F2000E44F23F23FA
:10185000AEF8003040F20C0EC4F2000EBEF80030BC
:1018600043F00103AEF800304FF0804EBEF8003078
:1018700043F00103AEF80030DCF8003043F002031F
:10188000CCF800300968A1FB022100EB914040F246
:101890002841C4F20001088040F22C41C4F200014A
:1018A0004AF21F10088040F20C41C4F2000108887F
:1018B00040F00100088040F20041C4F200010888B5
:1018C00040F00100088080BD80B582B08DF807002F
:1018D0008DF806109DF80700FFF732FC9DF8070011
:1018E0000021FFF7B5F89DF807009DF80610FFF7F7
:1018F00015FB9DF80700FFF759FC02B080BD4900B9
:1019000050EAC12018BF04204A0D18BF40F0010062
:1019100040F2FF72B2EB515F08BF40F002000128B5
:1019200008BF052070472DE9F0414F1E00EBC701AD
:101930000446D1E9000115461E4637F006020DD0D7
:101940002A46334601F062F87F1E04EBC703D3E951
:10195000002300F079FD37F00602F1D1022F25D0E7
:10196000042F13D0062F18BFBDE8F0812A46334656
:1019700001F04CF8D4E90A2300F066FD2A4633460C
:1019800001F044F8D4E9082300F05EFD2A4633460E
:1019900001F03CF8D4E9062300F056FD2A46334610
:1019A00001F034F8D4E9042300F04EFD2A46334612
:1019B00001F02CF8D4E9022300F046FD2A46334614
:1019C00001F024F8D4E90023BDE8F04100F03CBD6B
:1019D000002213461046014900F0F2BD0000F03F1E
:1019E00000F032BD002213461046114600F0E8BD5B
:1019F00040F2013200204FF0E04101F077BB0000DF
:101A0000024A0020110701F071BB000001FDFFFF39
:101A10002DE9F04D1D460C4694B0174621F00041CB
:101A200023F00043002814BF4FF0010C4FF0000CCE
:101A30000CEB440CFB4A0CEB02064FEA620C6645C9
:101A40002BD33E0018BF012606EB45061644F64A86
:101A5000964222D3F54A53EA070C02D0944205D1AC
:101A600048B914B000201146BDE8F08D002808BF29
:101A70004FF0000C01D04FF0010C0CEB440212F5BA
:101A8000001F0AD8002F14BF4FF0010C4FF0000CBC
:101A90000CEB450212F5001F07D914B03A462B464D
:101AA0002146BDE8F04DFFF79BBF0022DFF880A381
:101AB000002CB8BF534526DADFF878C36345A8BFCA
:101AC000022220DADFF864C39C451CDCDFF868C31F
:101AD0000CEB235CBCF1140F08DDCCF1340627FAC3
:101AE00006FC0CFA06F6BE420DD108E05FB9CCF157
:101AF000140623FA06FC0CFA06F69E4203D10CF0FB
:101B00000102C2F1020251EA000C19D1002D17DACC
:101B1000002C18BF022A01D0012A07D00220FEF7AC
:101B200071FB14B0BDE8F04DFFF752BF0220FEF785
:101B300069FBFFF74DFF14B081F00041BDE8F08D67
:101B4000B7F1000C6CD1534525D104F1804212F558
:101B5000801201BF00280020B44914B008BFBDE8BE
:101B6000F08DB248884207DC002DA1BF60462946AF
:101B700014B0BDE8F08D07E0002DBFBF604685F0D2
:101B8000004114B0BDE8F08DAC497944D1E90001C1
:101B900014B0BDE8F08DDFF894C2634525D1002D67
:101BA0001FDA19B1514512D1D8B909E0002840F027
:101BB000F6829F4A214614B062F31E01BDE8F08D03
:101BC0000020214614B060F31E01BDE8F08D08DA54
:101BD00014B02346BDE8F04D02460020614600F0F7
:101BE000EFBC14B02146BDE8F08D514518DAB5F1CF
:101BF000804F0DD0A5F1005CBCF1FF5C10D1B4F1B9
:101C0000000C0DDB14B06146BDE8F04D00F0F6BBF2
:101C1000234614B00246BDE8F04D194600F0F6BE6A
:101C2000060024F0004C3BD1D9B1514533D1002CF2
:101C300006DD002DA1BF0020514614B0BDE8F08D97
:101C4000002C01DD002D1BDB002C13DA002D11DB35
:101C5000012A4FF0000014BF7549794914B0BDE85E
:101C6000F08D022A18BF002C0AD0012A08D1002CBE
:101C700006DA0AE0002CB8BF002D11DA012A04D0E0
:101C8000002014B00146BDE8F08D14B000204FF0E4
:101C90000041BDE8F08DA1F14050B0F17F601AD055
:101CA000012000EBE47050EA020421D05F4C521E88
:101CB0004FF0000B104304BF4FF0000B614C624823
:101CC00083427DDD614A6248934229DD884217DB09
:101CD000002D2FDB41E0002C00DA4AB1022A0CBFB4
:101CE00001204FF0FF3014B0BDE8F04D00F0FEBD14
:101CF0000120FEF787FA14B0BDE8F04DFFF772BE81
:101D00004A4A8A420CDC002D14DC0220FEF77AFAE3
:101D1000FFF776FE61F31E0414B02146BDE8F08D96
:101D2000814202DA002D18DA04E0404B994220DDAE
:101D3000002D12DD0220FEF765FAFFF759FE054679
:101D40000E46002253465846214600F05FFE14B06E
:101D500066F31E012846BDE8F08D0220FEF752FA18
:101D6000FFF74EFE0A46214614B062F31E01BDE89D
:101D7000F08D00223046614601F06EF80646884636
:101D80006FF0010201F0B2F94FF05532314B00F023
:101D900071FF3246434600F039FE00222E4B00F020
:101DA00069FF8A463246434602901046194600F0C3
:101DB0002DFE5346029A00F029FE8246324600E08C
:101DC00054E0059143464FF0C040244900F01EFE08
:101DD000CDE90C01224A214B5046059900F016FE30
:101DE000824601911F4A204B3046414600F00EFECC
:101DF0005246019B01F030F882460B46024609919B
:101E0000DDE90C0100F020FBDDE90C23002688460B
:101E1000304601F021F85246099B00F02BFF0246A4
:101E200000F07EB9FFFF1F00FFFF0F000000F03F32
:101E30000000F07F0000404301FCFFFF721600002D
:101E40000000F0FF0000F0BF0000E0410000F043A0
:101E5000FFFFEF3F5555D53F0000E03F4715F73FE7
:101E6000FE822B6544DF5DF80BAE543E0020B1F5D9
:101E7000801F07DA35223046614601F037F9064601
:101E80006FF0340000EB2150A0F2FF300190C1F35D
:101E9000130040F07F6141F040510291FE498842B9
:101EA000D8BF002004DDFD498142C8BF012001DD0B
:101EB0000F9008E000200F900198401C01900298BC
:101EC000A0F5801002900299F548784405910F9989
:101ED00000EBC1001290D0E900233046059900F0D4
:101EE000BBFFCDE90C011298D0E9002330460599DB
:101EF00000F0AAFA02460B460020EA4900F060FB17
:101F00000B46CDE908010246DDE90C0100F07EFD3B
:101F10000A90E5488A464FF0000878440299006824
:101F200010904FF0005040EA61010F9801EB8040A3
:101F300000F5002112981191D0E90023109800F0CB
:101F40008BFF3246059B00F095FE4246534600F05B
:101F50005DFDDDE91023064603914046514600F041
:101F600055FDDDE90C2300F085FE3246039B00F0B1
:101F700073FFDDE9082300F049FD03910A9A1290EE
:101F800053461046194600F041FD06460246C74832
:101F90000B46029106217844FFF7C5FC029B3246AE
:101FA000059108901046194600F030FD059B089AEF
:101FB00000F02CFD064609915346404619460A9A00
:101FC00000F042FA039B129A00F020FD3246099B72
:101FD00000F03AFACDE90801424653461046194648
:101FE00000F014FD02460B46029104900020B04917
:101FF00000F02AFADDE9082300F026FA0E464246F0
:10200000AB4B404600F028FF029B049A00F024FFEF
:10201000DDE9082300F02EFE42460491029033468B
:102020001046514600F0F2FCCDE90C0153460A9AE5
:102030000499029800F0EAFC824600913346424639
:102040000399129800F0E2FC5246009B00F0FCF964
:1020500082460B4602460991DDE90C0100F0F4F9D5
:10206000DDE90C2300268846304600F0F5FE524696
:10207000099B00F0FFFDCDE90801434632464FF0D1
:1020800060408C4900F0C2FC82460491DDE9080101
:10209000894A884B00F0BAFC0291009043463246D0
:1020A0008648874900F0B2FC029B009A00F0CCF908
:1020B000844B7B440F9A03EBC203D3E9002300F067
:1020C000C3F900900291019800F010FC0E9003916A
:1020D0005046029B009A049900F0B6F97A4A7A4475
:1020E0000F9B02EBC3030993D3E9002300F0ACF983
:1020F000039B0E9A00F0A8F988463046039B0E9A7F
:1021000000F0AAFE099BD3E9002300F0A5FE524689
:10211000049B00F0A1FE029B009A00F0ABFD02467A
:1021200000200B4602903846294600F06FFC82469C
:1021300003912B4638461946029A00F08DFE32462E
:10214000434600F063FC5246039B00F07DF90746CE
:102150008A46324643462946029800F057FC054617
:102160000E463A46534600F06FF9584A8846914267
:1021700021DBA8EB020353EA000210D12A463346C2
:1021800000F06AFECDE90310514A524B38465146E1
:1021900000F05AF9DDE9033200F036FD21D20220C9
:1021A000FEF730F8FFF724FC0A46214614B062F32C
:1021B0001E01BDE8F08D484B28F000429A4210D332
:1021C000464A08EB020353EA00027FF4C6AD2A46F2
:1021D000334600F041FE3A46534600F015FD7FF6C7
:1021E000BCAD0022019228F000403D493D4A01EB80
:1021F0002051824223DA481C4FF4801121FA00F06A
:102200004044394AC0F30A517A44384BA1F2FF31B5
:10221000CB4020EA0303C0F3130040F48010C1F167
:102220001401C84012680190B8F1000FBCBF4042D1
:1022300001902846314600F00FFE05460E462A461C
:1022400033463846514600F0FFF84FF0000842464A
:10225000274B4046039100F0D9FBCDE90C01254AFC
:10226000254B4046039900F0D1FB029100902A468D
:1022700033464046039900F0EFFD3A46534600F0DE
:10228000F9FC1E4A1E4B00F0C1FB029B009A00F0B5
:10229000DBF80746884635E08E9803007AB60B00D7
:1022A000AA1200000000F03FE21200000E1200002F
:1022B0000000084009C7EE3FFD033ADCF5015B145E
:1022C000E02F3EBEE2100000A6100000000090408B
:1022D000FE822B654715973C00CC904000346F3F41
:1022E00001FCFFFF0000E03FF40F0000FFFF0F00C4
:1022F000432EE63F396CA80C615C20BEEF39FAFE34
:10230000422EE63F02460B46DDE90C0100F09CF848
:10231000DDE90C2305460E4600F09EFD3A46434695
:1023200000F0A8FC07462A46334605911046194698
:1023300000F06CFB824602462E4888460B4605217B
:102340007844FFF7F0FA5246434600F05FFB2A4616
:10235000334600F08FFC80468A463A46284631468E
:10236000059B00F053FB3A46059B00F06DF8059184
:10237000009000224FF080434046514600F06CFD33
:1023800007460391424653462846314600F03EFB3D
:102390003A46039B00F014F9059B009A00F05CFD9F
:1023A0002A46334600F058FD0022134B00F062FC31
:1023B000054601980E4601EB00510815002810DC77
:1023C00028463146019A00F091FEFFF798FA04285A
:1023D00008BFFFF715FB28463146019A00F086FE3C
:1023E00005460B4614B02A4658462146BDE8F04D36
:1023F00000F00CBB940E00000000F03F2DE9F0410E
:1024000006460F4600F042FC041E0D4618BF012090
:10241000284320F00040C0F17F6000F1E040C00F91
:102420000ED0301C18BF0120384320F00040C0F10E
:102430007F6000F1E040C00F04BF0120FDF7E2FE25
:1024400020462946BDE8F08110B591EA030F48BF48
:1024500083F0004300F10885841A71EB030C05D268
:10246000121943EB0C03001B61EB0C014FEA1154F2
:10247000A4EB135CDFF81CE11EEA430F18BF9EEAD1
:10248000445F00F0748021EA045123EA0E0343F410
:102490008013DCF1200E32D322FA0CFE10EB0E007A
:1024A00023FA0CFE41EB0E01CCF1200E03FA0EFED6
:1024B00010EB0E00CCF1200E51F10001B1F5801FA0
:1024C00032D201EB045112FA0EF2BDE8104058BFAF
:1024D0007047401C38BF5FEA420218BF70470028AF
:1024E00014BF20F0010041F100014FEA410313F550
:1024F000001F38BF7047A1F1C04100F07FBB012A27
:1025000043EB0302ACF1200CDCF11F0E32BF4FF0A5
:10251000000E23FA0CF310EB030041EB0451B4EB73
:10252000115FD0D0A1EB045101F58011490801EBF6
:1025300004515FEA30000ED350F1000038BF12FAA8
:102540000EFE08D1BDE81040C9E7401C38BF5FEA65
:102550004202CAD1C3E7BDE810404FEA410313F578
:10256000001F38BF7047A1F1C04100F047BB9EEA91
:10257000445F08D011EA5E0FBDE8104004BF01F0CF
:10258000004100207047BDE8104070B500F0E8FA47
:1025900064FBBE3E0000E0FF02494FF0000000F087
:1025A00073BD00BF0000F87F491058BFC1F1404122
:1025B0005B1058BFC3F140438B42EFF3008070477C
:1025C0002DE9C04130B4DFF8A4C23CEA111418BFB1
:1025D0003CEA131400F0ED801CEA111481EA0305B3
:1025E00044EAD57418BF1CEA131500F0C880A4EBA8
:1025F000050404F17F7404F500344FF0004545EA0A
:10260000C12145EAC32341EA505143EA52534FEAFC
:10261000C0204FEAC222994208BF904200F09D803C
:102620004FEA13650FF24416765D4FEA134506FB39
:1026300005F7C7F1807706FB07F74FEAD737A7FB07
:1026400003687642A7FB06CEC8F5803838BFA8F1EC
:10265000010807FB08E6A6FB028C4FF0000EE6FB24
:1026600003CEDCF1000CCEF1004E38BFAEF1010E0E
:10267000A6FB0C584FF00007E6FB0E87A1FB08C62F
:10268000A0FB07CE16EB0E064FF0000545F1000546
:10269000E1FB076515F1E04E7EBFA4F580345FEAEB
:1026A00046066D4116F1800745F100054FEA1727F0
:1026B00047EA05674FEA15254FEA0666A6F1DE46AA
:1026C000B6F1805F20D9384605EBC47124F0010CC7
:1026D00001EB0C11BCF1FE6F02D8F0BCBDE800812B
:1026E00024425CBF01F5801E9EEAC47F02D4F0BC88
:1026F000BDE80081244200F13980A1F1C041F0BC65
:10270000BDE8004100F07ABA4FEAD02040EA4150DB
:102710004FEAD1214FEAD22242EA43524FEAD32371
:10272000A7FB028607FB036605FB02661EEA0E0F87
:1027300058BFA6EB0056B6EB00564FEA520E4EEAD3
:10274000C37E18EB0E0E56EB530EBCD518EB0208E9
:102750005E417F1C55F10005B5E74FF480154FF041
:1027600000074FF000064FF00008ACE701F1C04150
:1027700001F000414FF00000F0BCBDE800810CEA20
:10278000131511EA0C1F00D00CE013EA0C1F00F027
:1027900026804FF0000081EA030101F00041F0BC07
:1027A000BDE80081F0BCBDE8004181EA030100F012
:1027B00025BAF0BCBDE8004170B500F0D1F900BF0A
:1027C000097EFC3E00F007B84FF0000081EA0301EB
:1027D00001F00041704781EA030100F00FBAF0BC3C
:1027E000BDE8004122494FF000007047FFFDFBF9B2
:1027F000F7F5F4F2F0EEEDEBE9E8E6E4E3E1E0DE34
:10280000DDDBDAD8D7D5D4D3D1D0CFCDCCCBCAC8A5
:10281000C7C6C5C4C2C1C0BFBEBDBCBBBAB9B8B7CC
:10282000B6B5B4B3B2B1B0AFAEADACABAAA9A8A8BF
:10283000A7A6A5A4A3A3A2A1A09F9F9E9D9C9C9B8D
:102840009A99999897979695959493939291919038
:102850008F8F8E8E8D8C8C8B8B8A898988888787C9
:102860008685858484838382828181800000FF073E
:102870000000F87F51EA030C17D41CF5801F58BFE5
:10288000BCF5801F00F10680994218BF704708BF51
:102890009042704707D711F5801F58BF13F5801F6E
:1028A00019D499427047894270471CF5801F08D59A
:1028B000BCF5801FF7D58B4218BF704708BF824216
:1028C00070474FF4001C1CEB410F38BF1CEB430F4B
:1028D00001D28B42704770B500F042F99224490052
:1028E0004FF000514FF08053FFF75EBE10F00042F2
:1028F00048BF4042B0FA80F310FA03F10AD0C3F1A6
:102900001D0303F5806302EB03524FEA415002EBD3
:10291000D12170474FF000007047000051EA030CCE
:1029200017D41CF5801F58BFBCF5801F00F106802E
:10293000994218BF704708BF9042704707D711F5FA
:10294000801F58BF13F5801F19D4994270478942E0
:1029500070471CF5801F08D5BCF5801FF7D58B424A
:1029600018BF704708BF824270474FF4001C1CEB31
:10297000410F38BF1CEB430F01D28B42704770B53B
:1029800000F0EEF8922449004FF080514FF00053D0
:10299000FFF70ABE51EA030C17D41CF5801F58BF7D
:1029A000BCF5801F00F10680994218BF704708BF30
:1029B0009042704707D711F5801F58BF13F5801F4D
:1029C00019D499427047894270471CF5801F08D579
:1029D000BCF5801FF7D58B4218BF704708BF8242F5
:1029E00070474FF4001C1CEB410F38BF1CEB430F2A
:1029F00001D28B42704770B500F0B2F892244900C2
:102A00004FF000514FF08053FFF7CEBD70B5DFF8A7
:102A100048C11CEA111E1EBF1CEA13159EEA0C0FCA
:102A200095EA0C0F00F06F8081EA03044EEAD47E31
:102A3000AE4421EA4C1123EA4C1341F4801143F4D3
:102A40008013AEF17F7EA1FB024CA0FB036536191B
:102A500055EB0C05A1FB034C4CF10003A0FB021C41
:102A600016EB0C06654153F10003094218BF46F00E
:102A7000010613F4007F0BD14FEA03314FEA053012
:102A800041EA155140EA165034036FF003020AE0A0
:102A90004FEAC3214FEAC52041EA555140EA56505A
:102AA000F4026FF0020202EB2E4201EB025585EABE
:102AB000CE710AD05FEA440C18BF24F0004450F1F4
:102AC000000041F1000120EAD47040F2FE7C624532
:102AD00000D270BDA84214BF4FF080444FF0404474
:102AE000002E08BF0024BEF1806FA8BFA1F1C04135
:102AF000BDE8704080F2828001F1C04101F00041E8
:102B00004FF0000070470CEA13159EEA0C0F18BF37
:102B100095EA0C0F06D081EA030E4FF000000EF08C
:102B2000004170BD00F01CF88900013E00F007B8BC
:102B300000F009B84FEA430C5FEA5C5C08D081EA18
:102B4000030100F05BB84FEA410C5FEA5C5CF6D130
:102B500002494FF0000070470000FF070000F87FB7
:102B60000EF1020E2EF0030E5EF8046B364205D411
:102B7000012A43EB030515F5001F12D8012841EB8C
:102B8000010C1CF5001F0CD80ED14FEAD17C0CEBC8
:102B90004C0C0CF1020C15F5001F08BF4CEBD37C5C
:102BA00004E04FF0080C01E04FEAD37C0CEB4C053D
:102BB00026FA05F606F00706B6F1040C06D20EEB6F
:102BC000860CBDE870404CF0010C6047DFE80CF06B
:102BD000090B02024FF00041A1F500214FF0000067
:102BE00070BD19461046012851EB010418BFD4F5F9
:102BF000001484BF002001F0004170BD0808A0F55A
:102C000000114FEA3101704753EA010C17D41CF54B
:102C1000801F58BFBCF5801F00F106808B4218BF93
:102C2000704708BF8242704707D713F5801F58BF0F
:102C300011F5801F19D48B4270479B4270471CF5D9
:102C4000801F08D5BCF5801FF7D5994218BF704783
:102C500008BF904270474FF4001C1CEB430F38BF75
:102C60001CEB410F01D2994270470FB40CBC03BC5E
:102C7000FFF7C1BE10B591EA030F81F000413FF5A7
:102C8000EBAB83F0004300F0EFB800002DE9F0411A
:102C900001F5801CBCF5001FC0F2C3804FEA115C37
:102CA00021EA0C5141F480110CF1FD0C5FEA5C0C3F
:102CB0000CF5C07C01D340004941890241EA9051A2
:102CC00087023BA48E0EA45D0A0C04FB04F602FBF3
:102CD00006F6C6F14046A4FB0662F60D46EA422619
:102CE00006FB06F4A4FB01235242C3F1404338BF64
:102CF0005B1EA6FB02420024E6FB0324D20B42EA41
:102D00004446A6FB0623A1FB02E2A3FB07E4A418AA
:102D10004FF0000252F10002E3FB01426442C2F1B3
:102D2000404E38BFAEF1010EA6FB04234FF0000267
:102D3000E6FB0E32A2FB0346B6194FF0000454F135
:102D40000004E2FB0264A1FB06E6A4FB07E816EB25
:102D500008064FF0000858F10008E4FB01687642CD
:102D6000C8F1405838BFA8F10108A2FB06E4A3FB54
:102D700008E52D194FF0000454F10004E2FB08545B
:102D8000A1FB05E6A7FB04E818EB06084FF00006D8
:102D900056F10006E1FB048618F1200556F1000605
:102DA000A80940EA8660B109A8F11B0808F03F08AD
:102DB000B8F10A0F1CD901EB0C51BDE8F08100BF3E
:102DC000FCF5EEE8E2DDD8D3CFCBC7C3C0BDB9B6C2
:102DD000B4B1AEACA9A7A5A3A19F9D9B9A989695C7
:102DE0009392908F8D8C8B8988878685848382814E
:102DF000A0FB006800FB01F208EB4208B8EB872853
:102E000007D5341858EB0104D5D5401C51F1000109
:102E1000D1E7341A78EB0104CDD4401E71F10001E2
:102E2000C9E75FEA4C0C5FEA9C5C0DD105D301F069
:102E300000414FF00000BDE8F081BDE8F04170B501
:102E4000FFF78EFE6DDBFFBEBDE8F04101494FF09C
:102E5000000070470000F87F10B591EA030F48BFEB
:102E600083F000433FF5F8AA841A71EB030C07D2F4
:102E70008CF0004C121943EB0C03001B61EB0C01AE
:102E80004FEA1154A4EB135CDFF8A4E11EEA430FF0
:102E900018BF9EEA445F00F0B48021EA045123EA9F
:102EA0006E035242C3EB6E0338BF5B1EDCF1200E93
:102EB00025D322FA0CFE10EB0E0043FA0CFE41EB78
:102EC0000E01CCF1200E03FA0EFE10EB0E00CCF139
:102ED000200E51F1000129D401EB045112FA0EF237
:102EE000BDE8104058BF7047401C1CBFB2F1004FF6
:102EF000704700280CBF491C20F00100704712EBFE
:102F0000020E43EB030218BF4FF0010E4EEA4202DD
:102F1000ACF1200CDCF11E0E56D943FA0CFE10EB7E
:102F20000E00CCF11E0E51F1FF31D5D50EF1010E80
:102F300012FA0EFE404141EB010101EB445C5FEAF5
:102F40005C5C10D901EB045110EBDE7038BFBEF1B0
:102F5000004FBDE8104018BF704700280CBF491C47
:102F600020F00100704734D24FEAD42C24F40064DE
:102F700011F500111BD0B1FA81F20B3AA41AA41E6C
:102F8000D2F12003914030FA03F31943904001EB52
:102F9000CC7101EB0451002CBDE81040A8BF704774
:102FA00001F1C04101F000414FF000007047B0FA5C
:102FB00080F310FA03F102D1BDE810407047E41A23
:102FC000173C4805C90AE2E701EB0451BDE810408F
:102FD000704749104FEA300001EB0451BDE8104042
:102FE00002E04FF0000170474A0008BF0042F8D0ED
:102FF000B2F5001F28BF704701F000414FF00000FC
:1030000070479EEA445F07D011EA5E0FBDE81040AA
:1030100004BF002100207047BDE8104070B5FFF7E5
:103020009FFD00BF40DFF63E104683F00041704731
:103030000000E0FF10B5FFF71DFC0CBF01200020D1
:1030400010BD10B5FFF716FC14BF0120002010BD05
:1030500010B5FFF763FC8CBF0120002010BD10B538
:10306000FFF75CFC2CBF0120002010BD10B5FFF75E
:1030700091FC94BF0120002010BD10B5FFF78AFC21
:1030800034BF0120002010BD0CF00F03092B08BF36
:10309000082000F059800A2B0BD0082B18BF70476E
:1030A00008BF1CF0400F0AD04FF000004FF00001A5
:1030B00070471CF0400F18BF4FF0004070471CF0E5
:1030C000100F08D000F07F4220F0704342EAD30195
:1030D0004FEA4370704700F0604021F07F4242EABF
:1030E000000201F07F4040EA727070474FF0FF0C21
:1030F0004CF4E06C1CEA11531CBF9CEA030C944591
:10310000C2BFDA4201EB02517047002B0DD0BCF177
:10311000000F0FD001F00041002AA4BF41F0E041B0
:1031200041F07F614FF00000704701F000414FF027
:103130000000704750EA01334FF09B0C18BF4CF071
:10314000806C7FF429AA70471CF4801F11D01CF4F6
:10315000E02F03D06FEACC31490070474FF0405068
:10316000EFF3008222F0704242EA000282F300880C
:1031700070474FF000007047000000000000F03F73
:10318000000000000000F83F000000000000000008
:103190000000004003B8E23F000000000000000013
:1031A00006D0CF43EBFD4C3E033333333333E33FA1
:1031B000FFAB6FDBB66DDB3F4D268F515555D53FCD
:1031C00001411DA96074D13F65DBC9934A86CD3F9B
:1031D000EF4E454A287ECA3F3E5555555555C53F89
:1031E00093BDBE166CC166BF2CDE25AF6A56113F7B
:1031F000F16BD2C541BDBBBED0A4BE726937663E7D
:1032000000000000000000000000000000000000BE
:1032100001020304060708094E4F524D414C21217B
:1032200000594F552046414C4C0000004C320008DC
:103230000000002004000000500100085032000887
:1032400008000020780600007001000800A24A046F
:04000005080001B539
:00000001FF
