:020000040800F2
:1000000078060020B5010008BD010008BF01000806
:10001000C1010008C3010008C5010008000000007C
:10002000000000000000000000000000C701000800
:10003000C901000800000000CB010008CD01000844
:10004000CF010008CF010008CF010008CF01000850
:10005000CF010008CF01000871020008A9020008C2
:10006000CF010008CF010008CF010008CF01000830
:10007000CF010008CF010008CF010008CF01000820
:10008000CF010008CF010008CF010008CF01000810
:10009000CF010008CF010008CF010008CF01000800
:1000A000CF010008CF010008CF010008CF010008F0
:1000B00075040008A9040008CF010008CF0100085A
:1000C000CF010008CF010008CF010008CF010008D0
:1000D000CF010008CF010008CF010008CF010008C0
:1000E000CF010008CF010008CF01000800F002F89E
:1000F00000F050F814A696E8000CB244B344DA4578
:1001000001D100F047F8BAE80F000FA696E83000DA
:10011000A5EB040504EB0607AAEB0704A7F101070A
:100120004FEA15154FEA3414A4F10104AC4201D38F
:1001300000F030F813F0010F18BFFB1A43F0010371
:1001400000F001F8DBE718475812000078120000B1
:10015000103A24BF78C878C1FAD8520724BF30C8F3
:1001600030C144BF04680C60704700007047000055
:100170000023002400250026103A28BF78C1FBD8B0
:10018000520728BF30C148BF0B6070471FB51FBD65
:1001900010B510BD00F031F81146FFF7F7FF00F081
:1001A000F9FE00F04FF803B4FFF7F2FF03BC00F0D4
:1001B00057F800000948804709480047FEE7FEE776
:1001C000FEE7FEE7FEE7FEE7FEE7FEE7FEE7FEE707
:1001D00004480549054A064B704700000D04000815
:1001E000ED0000087800002078060020780200204A
:1001F00078020020704770477047754600F02CF871
:10020000AE4605006946534620F00700854618B003
:1002100020B5FFF7DDFFBDE820404FF000064FF0AE
:1002200000074FF000084FF0000BAC46ACE8C009E7
:10023000ACE8C009ACE8C009ACE8C00921F007018E
:100240008D46704710B50446AFF300802046BDE8E8
:100250001040FFF7A8BF00000048704708000020CA
:1002600001491820ABBEFEE72600020070470000DF
:1002700040F21440C4F201000068C00790B1FFE7EB
:1002800040F21441C4F20101086840F00100086026
:1002900040F27401C2F200010868B0FA80F040092F
:1002A0000860FFE77047000040F21440C4F201000C
:1002B00000688007002812D5FFE740F21441C4F21D
:1002C0000101086840F00200086040F26801C2F2D3
:1002D00000010868B0FA80F040090860FFE7704745
:1002E00080B500F001F880BD84B00020039002903A
:1002F00041F20001C4F20201086840F48030086055
:10030000FFE741F20000C4F20200006800F4003090
:100310000290039801300390FFE7029900200190BA
:1003200039B9FFE70398B0F5A06018BF012001902C
:10033000FFE70198C0070028E3D1FFE741F2000082
:10034000C4F2020000688003002803D5FFE7012003
:10035000029002E000200290FFE70298012851D1AC
:10036000FFE742F20001C4F20201086840F0100009
:100370000860086820F007000860086840F0020084
:10038000086041F20401C4F20201009108680860AB
:1003900008680860086840F480600860086820F415
:1003A0007C100860086840F4E810086041F2000121
:1003B000C4F20201086840F080700860FFE741F273
:1003C0000000C4F2020000688001002801D4FFE7A9
:1003D000F5E741F20401C4F20201086820F00300CD
:1003E0000860086840F002000860FFE741F204007E
:1003F000C4F20200006800F00C00082801D0FFE7FA
:10040000F4E700E0FFE704B07047000080B541F278
:100410000002C4F20202106840F00100106041F2D4
:100420000401C4F2020108680023CFF6FF0318405C
:10043000086010684FF6FF73CFF6F663184010603F
:10044000106820F480201060086820F4FE00086026
:1004500041F20801C4F202014FF41F000860FFF7E7
:100460003FFF4EF60851CEF200014FF000600860E9
:1004700080BD00001020C4F200000088C00788B1D1
:10048000FFE71021C4F20001088820F00100088075
:1004900040F26C01C2F200010868B0FA80F0400935
:1004A0000860FFE77047000040F21040C4F200000F
:1004B0000088C00790B1FFE740F21041C4F200018C
:1004C000088820F00100088040F27001C2F20001AB
:1004D0000868B0FA80F040090860FFE77047000044
:1004E00081B08DF803009DF9030000280ED4FFE7CA
:1004F0009DF9031001F01F02012090404A094EF2BD
:100500000011CEF2000141F82200FFE701B0704770
:1005100082B08DF8070000919DF9070000280AD4E9
:10052000FFE7009800019DF907104EF20042CEF25D
:10053000000288540BE0009800019DF8071001F0BC
:100540000F014EF61452CEF200028854FFE702B0BB
:100550007047000080B582B08DF807008DF8061056
:100560009DF807009DF806204E2100F00DFA02B01C
:1005700080BD000080B582B0ADF80600BDF8060071
:1005800038B9FFE7012002220023194600F03CF8A9
:100590000CE0BDF80600012807D1FFE70121022287
:1005A0000023084600F030F8FFE7FFE702B080BD07
:1005B00080B582B0019000200090FFE7009801997B
:1005C000884209D2FFE74FF47A7000F007F8FFE79E
:1005D000009801300090F1E702B080BD81B000903A
:1005E00040F62401C4F2000100200880FFE740F635
:1005F0002400C4F2000000880099884201D2FFE77D
:10060000F5E701B07047000084B0ADF80E00ADF81A
:100610000C1002920193BDF80E00012809D1FFE7EA
:1006200041F21801C4F20201086840F004000860B9
:100630001DE0BDF80E00022809D1FFE741F21801C4
:10064000C4F20201086840F0080008600EE0BDF83E
:100650000E00032809D1FFE741F21801C4F202019C
:10066000086840F010000860FFE7FFE7FFE7BDF80B
:100670000C00072860DCFFE7BDF80E0001281AD146
:10068000FFE7BDF80C0081000F2000FA01F240F6F0
:100690000001C4F201010868904308600198BDF8A8
:1006A0000C2093009840029A02339A400243086853
:1006B000104308603FE0BDF80E0002281AD1FFE7A2
:1006C000BDF80C0081000F2000FA01F240F6004155
:1006D000C4F201010868904308600198BDF80C203D
:1006E00093009840029A02339A40024308681043EC
:1006F00008601FE0BDF80E0003281AD1FFE7BDF81F
:100700000C0081000F2000FA01F241F20001C4F256
:1007100001010868904308600198BDF80C2093001F
:100720009840029A02339A400243086810430860D6
:10073000FFE7FFE7FFE774E0BDF80E00012821D1D5
:10074000FFE7BDF80C006FF01F0202EB80010F20E5
:1007500000FA01F340F60401C4F20101086898436D
:1007600008600198BDF80CC002EB8C029040029A20
:100770006FF01D0303EB8C039A400243086810439B
:1007800008604DE0BDF80E00022821D1FFE7BDF85A
:100790000C006FF01F0202EB80010F2000FA01F342
:1007A00040F60441C4F201010868984308600198CA
:1007B000BDF80CC002EB8C029040029A6FF01D0352
:1007C00003EB8C039A40024308681043086026E05C
:1007D000BDF80E00032821D1FFE7BDF80C006FF033
:1007E0001F0202EB80010F2000FA01F341F2040125
:1007F000C4F201010868984308600198BDF80CC074
:1008000002EB8C029040029A6FF01D0303EB8C0305
:100810009A400243086810430860FFE7FFE7FFE7DC
:10082000FFE7029802283BD1FFE70198C0BBFFE732
:10083000BDF80E0001460091012808D0FFE700989E
:10084000022811D0FFE7009803281AD026E0BDF84F
:100850000C10012000FA01F240F60C01C4F2010173
:100860000868104308601AE0BDF80C10012000FA77
:1008700001F240F60C41C4F201010868104308601F
:100880000DE0BDF80C10012000FA01F241F20C015C
:10089000C4F2010108681043086000E0FFE7FFE7C9
:1008A00004B0704784B0ADF80E00ADF80C10ADF890
:1008B0000A20BDF80A0001282FD1FFE7BDF80E007D
:1008C00001460191012808D0FFE7019802280ED0C7
:1008D000FFE70198032814D01DE0BDF80C1001209B
:1008E000884040F61001C4F20101086014E0BDF830
:1008F0000C100120884040F61041C4F2010108604C
:100900000AE0BDF80C100120884041F21001C4F249
:100910000101086000E0FFE734E0BDF80E00014689
:100920000091012808D0FFE70098022810D0FFE7C7
:100930000098032818D023E0BDF80C0000F1100146
:100940000120884040F61001C4F20101086018E05F
:10095000BDF80C0000F110010120884040F6104164
:10096000C4F2010108600CE0BDF80C0000F11001B8
:100970000120884041F21001C4F20101086000E04A
:10098000FFE7FFE704B0704781B08DF803008DF8F2
:1009900002108DF801209DF80300D8B9FFE79DF8FB
:1009A00002009DF80110084345F21041C4F2000115
:1009B0000880FFE745F21440C4F200000088800779
:1009C000002801D4FFE7F5E745F21840C4F2000023
:1009D000008820E09DF8030001281BD1FFE79DF867
:1009E00002009DF80110084345F61001C4F2000111
:1009F0000880FFE745F61400C4F200000088800775
:100A0000002801D4FFE7F5E745F61800C4F200001E
:100A10000088FFE7FFE7012001B0704781B08DF843
:100A200003008DF802109DF8030098B9FFE79DF8C8
:100A3000020045F21041C4F200010880FFE745F2D0
:100A40001440C4F2000000880006002801D4FFE72B
:100A5000F5E718E09DF80300012813D1FFE79DF8A2
:100A6000020045F61001C4F200010880FFE745F6D8
:100A70001400C4F2000000880006002801D4FFE73B
:100A8000F5E7FFE7FFE7012001B0704780B584B0CC
:100A90008DF80F00ADF80C1041F21801C4F20201FC
:100AA000086840F008000860022001900621032336
:100AB00002931A46FFF7A8FD0198029B07211A46E8
:100AC000FFF7A2FD0198029B0A211A46FFF79CFD41
:100AD0000198029B0B211A46FFF796FD9DF80F0027
:100AE000F0B9FFE741F21C01C4F20201086840F4CA
:100AF0000010086045F20441C4F20001082008809B
:100B0000BDF80C0045F21C41C4F20001088045F21A
:100B10000041C4F20001088840F00100088023E091
:100B20009DF80F0001281ED1FFE741F21C01C4F21D
:100B30000201086840F48000086045F60401C4F230
:100B4000000108200880BDF80C0045F61C01C4F225
:100B50000001088045F60001C4F20001088840F059
:100B600001000880FFE7FFE7012004B080BD00001E
:100B700081B08DF803009DF8030098B9FFE745F2B6
:100B80000041C4F20001088840F480700880FFE74B
:100B900045F21440C4F200000088C00708B9FFE71E
:100BA000F6E718E09DF80300012813D1FFE745F6AA
:100BB0000001C4F20001088840F480700880FFE75B
:100BC00045F61400C4F200000088C00708B9FFE72A
:100BD000F6E7FFE7FFE7012001B0704781B08DF82D
:100BE00003009DF8030048B9FFE745F20041C4F255
:100BF0000001088840F4007008800EE09DF80300B2
:100C0000012809D1FFE745F60001C4F20001088878
:100C100040F400700880FFE7FFE7012001B0704753
:100C200080B588B041F21801C4F20201086840F0B2
:100C30000100086072B60821C4F201010191086840
:100C400020F00F00086040F20041C4F2010102915F
:100C5000086820F001000860086840F001000860A2
:100C600040F20C41C4F201010391086840F0010018
:100C7000086040F20841C4F201010491086820F0C4
:100C800001000860062000900021FFF741FC009859
:100C9000FFF726FCDDF804C0029B039A0499DCF8F8
:100CA000000020F0F000CCF80000186820F00200EE
:100CB0001860186840F002001860106840F00200E8
:100CC0001060086820F002000860072005900121EC
:100CD000FFF71EFC0598FFF703FC1C20069002217D
:100CE000FFF716FC0698FFF7FBFB1D20079003217A
:100CF000FFF70EFC0798FFF7F3FB62B608B080BD64
:100D000080B586B08DF817008DF816109DF8170085
:100D10000821049100F038FA0A200390FFF75EFCE6
:100D20009DF817000C21029100F02EFA0520019089
:100D3000FFF754FC9DF817009DF8161001F0F00124
:100D40000C3100F021FA0398FFF748FC9DF81700DA
:100D50009DF8161001F0F001083100F015FA14208A
:100D6000FFF73CFC02999DF8170000F00DFA01987E
:100D7000FFF734FC02999DF817009DF8162062F3E6
:100D8000071100F001FA0398FFF728FC04999DF879
:100D900017009DF8162062F3071100F0F5F906B070
:100DA00080BD000080B58AB08DF827009DF827002F
:100DB0002D21FFF76BFE1420FFF7FAFB9DF82700AB
:100DC0000821039100F0E0F90A200490FFF706FCE7
:100DD0009DF827000C21069100F0D6F90520089017
:100DE000FFF7FCFB9DF827003C21019100F0CCF9B6
:100DF0000498FFF7F3FB9DF827003821029100F0DB
:100E0000C3F901200790FFF7D3FB03999DF8270052
:100E100000F0BAF90498FFF7E1FB06999DF8270066
:100E200000F0B2F90898FFF7D9FB01999DF8270067
:100E300000F0AAF90498FFF7D1FB02999DF827006A
:100E400000F0A2F90798FFF7B3FB03999DF827007C
:100E500000F09AF90498FFF7C1FB06999DF8270066
:100E600000F092F90898FFF7B9FB01999DF8270067
:100E700000F08AF90498FFF7B1FB02999DF827006A
:100E800000F082F90798FFF793FB03999DF827007C
:100E900000F07AF90498FFF7A1FB06999DF8270066
:100EA00000F072F90898FFF799FB9DF827002C21B4
:100EB000059100F069F90498FFF790FB9DF8270071
:100EC000282100F061F905999DF82700FFF718FF28
:100ED0000898FFF76DFB06999DF82700FFF710FFB4
:100EE0000898FFF765FB07999DF82700FFF708FFB3
:100EF0000898FFF75DFB9DF827000221FFF700FF30
:100F00000898FFF755FB0AB080BD000080B582B09D
:100F100001900198022807D1FFE701200022022357
:100F20001946FFF771FB06E005210022022318464F
:100F3000FFF76AFBFFE702B080BD000081B00090C0
:100F40000098022807D1FFE740F61401C4F201011E
:100F50000420086006E040F61441C4F2010120209C
:100F60000860FFE701B0704780B582B0019001983A
:100F7000022806D1FFE7022101221046FFF792FC6A
:100F800005E0022005210122FFF78CFCFFE702B0FB
:100F900080BD000080B586B000200390059000F071
:100FA0006FF803982D210291FFF770FD029901203F
:100FB0000490FFF76BFD0398FFF7F4FE0398FFF72B
:100FC000D9FA0520FFF7A2FF0220FFF79FFFFFF7E6
:100FD00027FE0499032000F0F3F8FFE701210091B8
:100FE0000022022301930846FFF70EFB009A1046E9
:100FF0001146FFF757FC019840F61401C4F20101B5
:10100000086040F27400C2F20000006801282ED18E
:10101000FFE740F26C00C2F200000068012804D132
:10102000FFE70520FFF7A0FF03E00520FFF786FF9D
:10103000FFE740F26800C2F200000068012811D109
:10104000FFE740F27000C2F200000068012804D1FE
:10105000FFE70220FFF788FF03E00220FFF76EFFA3
:10106000FFE703E00220FFF769FFFFE706E0022049
:10107000FFF764FF0520FFF761FFFFE7AEE7000021
:1010800080B541F21C0CC4F2020CDCF8000040F008
:101090000400CCF8000040F20001C2F20001086830
:1010A0004DF68362C4F21B32A0FB02024FF0FF3008
:1010B00000EB924240F62803C4F200031A8040F687
:1010C0002C03C4F200034FF6FF721A8040F60003AF
:1010D000C4F2000301221A80DCF8002042F0010271
:1010E000CCF800200B6844F6D352C1F26202A3FB95
:1010F00002E300EB931340F2280EC4F2000EAEF8A8
:10110000003040F22C0EC4F2000E41F28733AEF8EC
:10111000003040F20C0EC4F2000EBEF8003043F076
:101120000103AEF800304FF0804EBEF8003043F0BF
:101130000103AEF80030DCF8003043F00203CCF8D5
:1011400000300968A1FB022100EB911040F2284118
:10115000C4F20001088040F22C41C4F2000140F6C4
:10116000C310088040F20C41C4F20001088840F02E
:101170000100088040F20041C4F20001088840F0FC
:101180000100088080BD000080B582B08DF80700A6
:101190008DF806109DF80700FFF7EAFC9DF80700A0
:1011A0000021FFF7D7F99DF807009DF80610FFF71B
:1011B00035FC9DF80700FFF711FD02B080BD00006F
:1011C00080B58CB00B90ADF82A1041F21801C4F232
:1011D0000201086840F0010008600B98012846D120
:1011E000FFE741F21801C4F20201086840F48040B0
:1011F0000860012008900921022209920323FFF7C9
:1012000003FA0898099A0A210023FFF7FDF9BDF8AF
:101210002A0040B9FFE743F60801C4F2010141F694
:10122000465008800DE0BDF82A00012808D1FFE7EC
:1012300043F60801C4F2010140F271200880FFE783
:10124000FFE743F60C01C4F201010791088840F062
:1012500008000880088840F004000880088840F4EE
:1012600000500880088840F02000088095E00B9826
:10127000022847D1FFE741F21C01C4F202010868CD
:1012800040F40030086001200490022206920323FB
:1012900005931146FFF7B8F904980599069A0023BB
:1012A000FFF7B2F9BDF82A0040B9FFE744F2084160
:1012B000C4F2000140F6A36008800DE0BDF82A00EA
:1012C000012808D1FFE744F20841C4F200014FF4BD
:1012D0009C700880FFE7FFE744F20C41C4F2000174
:1012E0000391088840F008000880088840F0040056
:1012F0000880088840F400500880088840F02000EA
:10130000088049E00B98032845D1FFE741F21C0112
:10131000C4F20201086840F4802008600A21022219
:10132000029203231046FFF76FF9029A0B21002364
:101330001046FFF769F9BDF82A0040B9FFE744F607
:101340000801C4F2000140F6A36008800DE0BDF87A
:101350002A00012808D1FFE744F60801C4F2000181
:101360004FF49C700880FFE7FFE744F60C01C4F2DD
:1013700000010191088840F008000880088840F0CA
:1013800004000880088840F400500880088840F075
:1013900020000880FFE7FFE7FFE70CB080BD0000FA
:1013A000C0130008000000200400000050010008E5
:1013B000C413000808000020700600007001000837
:0413C00000A24A0439
:04000005080001B539
:00000001FF
