:020000040800F2
:100000007806002061020008690200086B020008FF
:100010006D0200086F020008710200080000000075
:100020000000000000000000000000007302000853
:10003000750200080000000077020008790200083D
:100040007B0200087B0200087B0200087B0200089C
:100050007B0200087B020008B9130008F1130008B6
:100060007B020008291400087B0200087B020008BC
:100070007B0200087B0200087B0200087B0200086C
:100080007B0200087B0200087B0200087B0200085C
:100090007B0200087B0200087B0200087B0200084C
:1000A0007B0200087B0200087B0200087B0200083C
:1000B000F5190008291A00087B0200087B020008D5
:1000C0007B0200087B0200087B0200087B0200081C
:1000D0007B0200087B0200087B0200087B0200080C
:1000E0007B0200087B0200087B02000800F002F897
:1000F00000F0A6F814A696E8000CB244B344DA4522
:1001000001D100F09DF8BAE80F000FA696E8300084
:10011000A5EB040504EB0607AAEB0704A7F101070A
:100120004FEA15154FEA3414A4F10104AC4201D38F
:1001300000F086F813F0010F18BFFB1A43F001031B
:1001400000F001F8DBE7184760350000803500005B
:10015000103A24BF78C878C1FAD8520724BF30C8F3
:1001600030C144BF04680C60704700007047000055
:100170000023002400250026103A28BF78C1FBD8B0
:10018000520728BF30C148BF0B6070476E2900F08E
:100190004981702900F08D82662903F0EC81652980
:1001A00003F0E981672903F0E681612903F0E58125
:1001B00003681B0A28BF41F08001692900F0F6801E
:1001C000642900F0F380752900F0F0806F2900F0B9
:1001D0001B82782900F05982E92900F0B581E429D1
:1001E00000F0B281F52900F0AF81EF2900F018820C
:1001F000F82900F058820368DB0928BF41F080012C
:10020000632900F05987732900F05E87E32900F025
:100210006987F32900F06E87002070471FB500F052
:10022000C3FF04000020002102F0CAFF401C6060F0
:100230000020002102F0AEFFE0601FBD10B510BD30
:1002400000F084FF1146FFF7E9FF02F08DFA01F09C
:1002500061F803B4FFF7F2FF03BC01F0A5F800005A
:100260000948804709480047FEE7FEE7FEE7FEE74A
:10027000FEE7FEE7FEE7FEE7FEE7FEE70448054986
:10028000054A064B704700008D190008ED00000874
:1002900078000020780600207802002078020020F4
:1002A0000FB41CB50C0007AA009007D04142A14230
:1002B00002D32044401E01E04FF0FF30074B7B4447
:1002C00069460190069800F0C6F80021002C01D084
:1002D000009A11701CBC5DF814FB0000BB0100000B
:1002E00070477047704770B5044685690068C1065D
:1002F00001D5302600E02026C00707D070BDD4E924
:10030000012130469047206A401C20626D1EF6D5C0
:1003100070BD70B5044685690078C00707D170BD0F
:10032000D4E9012120209047206A401C20626D1EE4
:10033000F6D570BD09684A0501D540B27047C905B8
:10034000FCD500B2704709684A0501D5C0B27047B4
:10035000C905FCD580B2704770B50C460546012A28
:1003600005D02878800600D5EA69002302E0012341
:1003700005E05B1C934202D2E05C0028F9D1A86939
:10038000E618C01AA861286A184428622846FFF7B0
:10039000AAFF04E0D5E9012114F8010B9047B4420B
:1003A000F8D32846FFF7B5FF70BD00002DE9F041F6
:1003B0000646002410687529314616A510D0FFF7AF
:1003C000B9FF002802DA404213A507E031688A0726
:1003D00001D512A502E0490704D511A5012401E0C9
:1003E000FFF7B1FF00210A2206F1240709E0B0FB64
:1003F000F2FCB0FBF2F302FB1C00303078541846DC
:10040000491C0028F3D123462A463046BDE8F04176
:1004100000F063BA000000002D0000002B00000077
:100420002000000011680268006A530501D50870B9
:100430000AE0D30501D5088006E0130603D5C217EC
:10044000C1E9000200E008600120704701694A1C10
:1004500002610878704700B58FB0CDE90131002105
:10046000059105497944CDE903101146684600F02D
:100470002BF90FB000BD0000E5FFFFFFD1E900231D
:100480009A4202D2531C0B60107070472DE9FF5F37
:1004900015468A460446DFF8AC80F8440027D8E9C0
:1004A00000103E46CDE9001010E03AF816106A46FA
:1004B00002A800F023FE411C07D02178890603D54D
:1004C000E269391891420DD80744761C20788006DD
:1004D00002D5E069B84205DDAE42E6DB3AF8160027
:1004E0000028E2D1A069C01BA0612046FFF7FBFEF7
:1004F000D8E90010CDE90010002017E03AF81810F4
:100500006A4602A800F0FAFDB0F1FF3F81460BD029
:1005100000250DF1080B05E0D4E901211BF80500C9
:1005200090476D1C4D45F7D308F10100B04280465D
:10053000E4DB206A384420622046FFF7EAFEBDE88B
:10054000FF9F0000E23000002DE9F0418046D21DFF
:1005500022F007020025D2E90002F52915A614D0E1
:10056000011E72F1000106DA0023D0EB030063EBF9
:10057000020211A608E0D8F800108B0701D50FA6DB
:1005800002E0490701D50EA601251146002408F115
:10059000240704E000F05CF930323A55641C50EA5C
:1005A0000102F7D12B46324621464046BDE8F041D4
:1005B00000F093B9000000002D0000002B000000A7
:1005C0002000000030B4002100F1240408E002F013
:1005D0000705D208303542EA4372DB086554491CEE
:1005E00052EA0305F3D10468002310A2250708D5B9
:1005F00004F020040C4304D0C46901230CA2641E3F
:10060000C46130BC00F069B910B5044621461068D9
:10061000FFF799FE02462046BDE810400023D1E7CF
:10062000D21D22F00701D1E90023CBE70000000032
:1006300030000000F0B40D460188090502D5214CB8
:100640007C4402E01F4C7C440E34002100F124065F
:1006500008E002F00F071209E75D42EA03721B0986
:100660007754491C52EA0307F3D10278002312079A
:1006700004D5702D06D009B1022311342246F0BCF6
:1006800000F02BB901231034F8E770B504460D468D
:1006900021461068FFF757FE024629462046BDE86E
:1006A00070400023C6E7D21D22F00703D3E90023E0
:1006B000C0E70368126843F0200303600823C361A6
:1006C0000023B7E7442F00002DE9F05F8946044678
:1006D0004FF0000ADFF874B1FB44C0F820A02046B8
:1006E000E1688847002874D0252806D0D4E9012184
:1006F0009047206A401C2062F1E700265F462046B2
:10070000E16888472028054607DB312D05D2781996
:1007100010F8200C08B10643F1E7B00701D526F028
:100720000406C4F81CA00027C4F818A02A2D09D07C
:10073000284602F027FD38B304EB8708303DC8F89F
:10074000185019E059F8041B204604EB8702916108
:10075000E1688847012F054618D1E069002820DAB2
:1007600026F020061DE0D8F8180000EB800005EB0D
:1007700040003038C8F818002046E1688847054630
:1007800002F000FD0028EED1012F0AD02E2D08D155
:100790002046E16888477F1C0546022F46F0200668
:1007A000C4DBA069002803DA404246F00106A061DC
:1007B000F00701D026F010066C2D0BD0682D09D063
:1007C0004C2D39D06A2D35D0742D35D07A2D33D0BB
:1007D00016E038E0E1682F4620468847B8420546D3
:1007E00009D16C2F26D04FF48060E1680643204683
:1007F0008847054604E06C2F1AD04FF480700643FA
:100800000DB3A5F14100192802D8203546F4006641
:100810004A462946204626604E46FFF7B7FC80B17F
:1008200001280BD0F61D26F0070000F1080956E755
:100830004020E4E78020D8E70020D6E706F104094D
:100840004DE7284652E7206ABDE8F09FD42E00000D
:1008500030B5B0F10A0271F100034FEA900E4EEA92
:10086000817EB0EB0E0061EB91014FEA101E4EEA63
:10087000017E10EB0E0041EB11114FEA102E4EEAF3
:10088000016E10EB0E0041EB11214FEA104E4EEAC3
:10089000014E10EB0E0041EB1141401841F10001F7
:1008A0004FEAD00040EA41704FEAD1014FEA81049B
:1008B00044EA907410EB800544EB01046D1944EB9D
:1008C0000404521BA3414FF0000348BF0A3200D575
:1008D00030BD401C41F1000130BD2DE9F0470D460F
:1008E00099469246044600F124080168880604D51A
:1008F000E06921F01001216000E00120A84201DD43
:10090000471B00E00027A1697A1902EB0900081AC9
:10091000A0612078C00602D42046FFF7E4FC002640
:1009200008E0D4E901211AF806009047206A401C2B
:10093000761C20624E45F4DB2078C0060AD520469E
:10094000FFF7D1FC06E0D4E9012130209047206A6E
:10095000401C2062381EA7F10107F4DC07E0D4E94F
:10096000012118F805009047206A401C2062281ECB
:10097000A5F10105F3DC2046FFF7CBFC207800064B
:1009800002D50220BDE8F0870120FBE72DE9FF4FEB
:100990000C461E464FF0FF378BB0D2E90001DDF860
:1009A00060800A908A46C1F30A5505B93D46002188
:1009B00008464FF00000BAF1000F00F4400005DADD
:1009C00000EB80004FF4400101EA50004FEA9059DB
:1009D000B9F1010F00DDB9460A9850EA4A000ED07D
:1009E00044F61050A5F2FF3545432F14B8F1000F1F
:1009F0001ED07542291E1EDDC9F100021CE0B8F1AF
:100A0000010F4FF0000001D0302103E0F24305E078
:100A10002154401CB042FBDB30460022002121540F
:100A20000B99C1F80880C1E900200FB0BDE8F08F34
:100A3000BD1B6D1CDEE74A4600DA694206A800F0DD
:100A4000F7FB06AB93E8070003AB83E807005046CB
:100A50000A9901F0BAFF8DE80700A0F500501F3891
:100A600000900398002D0ADD42F21F014A46084417
:100A7000002303A90390684602F024FA09E0A0F5D8
:100A800000504A461F38002303A90390684602F02D
:100A90002EFA8DE807000004000C03D04FF0FF3061
:100AA000410800E01046B8F1000F03D00022009288
:100AB00015461EE0751E05D4FFF7CAFE303262559A
:100AC0006D1EF9D5B3460122084302D000227F1CD7
:100AD00004E02078302801D100227F1E002A0997E7
:100AE00084D01DE0112D07DAFFF7B2FE30326255D7
:100AF0006D1C50EA0102F5D1084302D00098C8B13C
:100B00000EE00021681E05E0235C625C6354225401
:100B1000401E491C8142F7DBAB46A81B401E0990D2
:100B2000002004F80B000B98099AC0F80880C0E96F
:100B3000002B7AE711264FF0000857E72DE9F04F18
:100B400088460446D21D22F0070191B0D1E9000188
:100B5000CDE90A0102F002FB02460B98C00F01D05A
:100B60002D2007E02068810701D52B2002E02021FD
:100B700001EAC000032A099001D0072A05DB0346D9
:100B80004146204600F014FB0BE12078800601D599
:100B9000E06900E00620B8F1650F814606D0B8F1A3
:100BA000660F18D0B8F1670F70D131E00020B9F1AD
:100BB000110F009001DB112301E009F101030AAAE2
:100BC00001A90CA8FFF7E2FEDDE90C70002609F18F
:100BD0000105834647E001204B4600904FF0004757
:100BE0000AAA01A90CA8FFF7D1FEDDE90DB00C9906
:100BF0005D46002610B909F101000D18B9EB05009A
:100C000003D4C0F1FF3609F10105A5EB09002BE083
:100C1000B9F1010F01DA4FF001090020B9F1110F0C
:100C20000090484601DD112300E003460AAA01A90D
:100C30000CA8FFF7ABFEDDE90C704D46002683469D
:100C4000207800070AD4AB4500DA5D4601A8012DE3
:100C500004DD411911F8011C302907D04F4502DA93
:100C600017F1040F04DA012082460FE06D1EEEE753
:100C7000002F02DCED1B3E4403E0781CA84200DD9F
:100C80007D1CB81B00F1010A4FF0004720780007D7
:100C900003D4AA4501DB4FF0FF3A0021B7F1004F22
:100CA0000DF143088DF8431024D002202B23002F90
:100CB00001DA7F422D230A21021EA0F1010000DC8F
:100CC0005FB197FBF1FC97FBF1F201FB1C7C17462F
:100CD0000CF1300C08F801CDEEE7A8F1010003702B
:100CE0002188090501D5452100E06521A0F1010811
:100CF00000F8011C09980FA9A1EB0807FF1D00B11E
:100D00000120411901EBEA70A1693844081A401E1C
:100D1000A0612078C00602D42046FFF7E4FA0998C3
:100D200028B1D4E901219047206A401C2062207834
:100D3000C00622D52046FFF7D6FA1EE0002E04DBBF
:100D4000B34502DD01A8805D00E03020D4E9012137
:100D50009047206A401C2062761CAAF101005FEADD
:100D6000000A0AD100F020FAC0680168405CD4E9AA
:100D700001219047206A401C2062281EA5F1010530
:100D8000DCDC07E0D4E9012118F8010B9047206A68
:100D9000401C2062381EA7F10107F3DC2046FFF754
:100DA000B8FA032011B041E62DE9F04F04460D4694
:100DB000D21D22F0070089B0D0E900974846394695
:100DC00002F0CCF90246F80F01D02D2307E020688D
:100DD000810701D52B2302E0202101EAC0038DF811
:100DE00020300BB1012000E00020032A824601D010
:100DF000072A04DB2946204600F0DAF93FE1207893
:100E0000800601D40D2500E0E569C7F30A560D2DD3
:100E100049DA00214FEA175B08464FF00000002F27
:100E200000F4400007DA00EB80004FF4400100EBD3
:100E3000D07001EA60008115012901DD4FF0FF311A
:100E400000224FEA850CBCF1180F06D31346ACF113
:100E500018004FF08052C24003E04FF4801323FA91
:100E60000CF30CF10C0CBCF1200F04D3ACF1200CF2
:100E700009FA0CF001E007FA0CF000294FF00048E5
:100E800001DD18B90FE00ED140450CD319EB020972
:100E90005F4121B9404502D19F4329EA0209BBEBDA
:100EA000175F00D0761C2088000502D57B48784467
:100EB00002E07A487844193808AA302302F80A3048
:100EC000037C0AF10101002E0AF1020A53546A461A
:100ED00002DC4FF0300101E04FF031014FF001082A
:100EE0008DF8001002D0A6F2FF3603E059EA470160
:100EF00000D06B4E002D02DC2178090704D54FF09D
:100F000002082E218DF80110C44600210BE0C7F322
:100F100003433F01C35C491C6D1E02F808300529DC
:100F200008F1010801DA002DF1DC00210CE000EBF2
:100F30001973491C1B786D1E082902F808304FEA06
:100F4000091908F1010801DA002DF0DC21688B068F
:100F500002D516E0A8F10108E04505DD02EB080323
:100F600013F8013C302BF5D0B8F1000F09DD02EB8E
:100F7000080313F8013C2E2B03D1090701D4A8F173
:100F80000108002D05DD3E2102F808106D1E08F154
:100F90000108407C002E02F8080008F1010804DA7C
:100FA0002D20764202F8080002E02B2002F808000B
:100FB0000A214FF47A70864208F101080BDB96FB98
:100FC000F0F3303302F8083096FBF0F308F1010833
:100FD00000FB136601E0642E0CDB642096FBF0F34B
:100FE000303302F8083096FBF0F308F1010800FBFB
:100FF000136601E00A2E06DB96FBF1F0303002F8B2
:10100000080008F1010896FBF1F001FB1060303098
:1010100002F80800A16908F1010808EB050202EBDB
:101020000A00081AA0612078C00602D42046FFF703
:101030005AF9216A08AE01EB0A00206204E0D4E903
:10104000012116F8010B9047BAF1010AF7D2207876
:10105000C00602D52046FFF746F96E4609E016F8AD
:10106000010B3E280FD0D4E901219047206A401C93
:101070002062B8F10108F2D22046FFF74AF909B020
:101080000320BDE8F08F206A2844206203E0D4E901
:101090000121302090476D1EEBD3F8E72227000096
:1010A00002FCFFFF10B5436913B1AFF3008001E00C
:1010B000FFF752F9012010BD127800F124010A70E7
:1010C00000224A700122EDE711684FF0FF32E9E794
:1010D00010B5436913B1AFF3008001E0FFF7D6F913
:1010E000012010BD128800F1240182840022C284F4
:1010F0000122EDE711684FF0FF32E9E72DE9F041F9
:1011000016460C46054600F047F8036893F80101BF
:10111000012807D0FF2C12D8185D80B101202C7057
:10112000BDE8F081D3F807013246214603F20713E8
:10113000C7182846BC46BDE8F041002360474FF081
:10114000FF30EDE700487047080000207546FFF7C4
:10115000F9FFAE4605006946534620F00700854674
:1011600018B020B5FFF78AF8BDE820404FF0000620
:101170004FF000074FF000084FF0000BAC46ACE812
:10118000C009ACE8C009ACE8C009ACE8C00921F06E
:1011900007018D467047000010B500F005F8001DEE
:1011A00010BD00BF1D20000000487047280000202F
:1011B0002DE9F0411F46044603260168072A01F481
:1011C000006004DB08B116A505E016A503E008B130
:1011D00015A500E015A521F010002060A069C01E33
:1011E000A0610FB1401EA0612046FFF77CF84FB10F
:1011F000D4E9012138469047206A401C2062C01C77
:10120000206206E0206AFAE7D4E9012115F8010B13
:101210009047761EF8D22046FFF77BF8BDE8F081B4
:101220004E414E006E616E00494E4600696E66008A
:101230002DE9F047814616468AB0354878440DC8F6
:101240008DE80D0032487844801C03AC0DC884E85A
:101250000D0041F69B300844372190FBF1F290FBE2
:10126000F1F5A5F1800501FB12041B3C02D5644297
:10127000012000E00020DFF898A080460027FA4413
:10128000AAF1BE0A0EE0E0070AD03246684607EB34
:10129000470101230AEB810101F029FE8DE80700D7
:1012A00064107F1C002CEED1194F7F44AE3F19E033
:1012B000E80715D007EB04100DF1180A90E80E00AE
:1012C0008AE80E00C068F04201D1981908903246B1
:1012D000012306A903A801F00AFE03AB83E8070077
:1012E0006D10641C002DE3D14FF0010332466946B6
:1012F000B8F1000F03A802D001F0E4FD01E001F015
:10130000F6FDC9E90001C9F808200AB0BDE8F08778
:101310002424000010B50446AFF300802046BDE849
:101320001040FEF796BF00004FF0013C50F8042B30
:1013300051F8043B9A4221D1A2EB0C03934313EAE8
:10134000CC1317D150F8042B51F8043B9A4215D115
:10135000A2EB0C03934313EACC130BD150F8042BEC
:1013600051F8043B9A4209D1A2EB0C03934313EAD0
:10137000CC13DBD04FF00000704700BFD01A01BA89
:10138000B1FA81F101F0180122FA01F0CB40DBB291
:10139000C0B2C01AC1F120012CFA01F3D11A914355
:1013A00011EAC311E6D1704701491820ABBEFEE730
:1013B000260002007047000040F21440C4F2010011
:1013C0000068C00790B1FFE740F21441C4F2010188
:1013D000086840F00100086040F27001C2F20001AC
:1013E0000868B0FA80F040090860FFE77047000025
:1013F00040F21440C4F2010000688007002812D5B2
:10140000FFE740F21441C4F20101086840F0020015
:10141000086040F20001C2F200010868B0FA80F0F2
:1014200040090860FFE7704740F21440C4F2010031
:1014300000680007002812D5FFE740F21441C4F20B
:101440000101086840F00800086040F20001C2F2A3
:1014500000010868B0FA80F040090860FFE77047B3
:1014600080B582B08DF807009DF807002D2100F0AF
:10147000CDFD9DF80700752100F026F88DF80600D7
:101480009DF807006B21012200F0CAF89DF80700C3
:1014900019210022009200F0C3F8009A9DF807007D
:1014A0001A2100F0BDF89DF807001B21082200F06A
:1014B000B7F8009A9DF807001C2100F0B1F89DF8DC
:1014C000060002B080BD000080B584B08DF80F002A
:1014D0008DF80E109DF80F0000F072FE9DF80F00C1
:1014E000D02101910022029200F00EFD9DF80F0024
:1014F0009DF80E1000F052FD9DF80F0000F060FE08
:1015000001999DF80F00012200F0FEFC02999DF860
:101510000F0000F0EFFD8DF80D009DF80F0000F0BA
:1015200085FE9DF80D0004B080BD000080B58AB036
:101530008DF8270008919DF827003B21FFF7C4FF95
:101540008DF81A009DF827003C21FFF7BDFF8DF8AC
:101550001B009DF827003D21FFF7B6FF8DF81C000A
:101560009DF827003E21FFF7AFFF8DF81D009DF885
:1015700027003F21FFF7A8FF8DF81E009DF82700E8
:101580004021FFF7A1FF8DF81F009DF81A109DF86C
:101590001B0040EA0120089908809DF81C109DF866
:1015A0001D0040EA0120089948809DF81E109DF812
:1015B0001F0040EA01200899888008980190B0F93E
:1015C000000001F06DFF002204920023C4F2D0035A
:1015D000029301F00BFE0A4601994A6108610898DE
:1015E0000390B0F9020001F05BFF029B049A01F046
:1015F000FDFD0A460399CA61886108980590B0F913
:10160000040001F04DFF049A42F60013C4F2CC032B
:1016100001F0ECFD0A4605994A6208620AB080BDF5
:1016200080B582B08DF807008DF806108DF8052082
:101630009DF8070000F0C4FD9DF80700D0210022AE
:1016400000F062FC9DF807009DF8061000F0A6FC73
:101650009DF807009DF8051000F0A0FC9DF807001C
:1016600000F0E4FD02B080BD80B500F001F880BD5F
:1016700084B000200390029041F20001C4F2020104
:10168000086840F480300860FFE741F20000C4F2CF
:101690000200006800F400300290039801300390CB
:1016A000FFE702990020019039B9FFE70398B0F5F0
:1016B000A06018BF01200190FFE70198C007002833
:1016C000E3D1FFE741F20000C4F2020000688003AA
:1016D000002803D5FFE70120029002E000200290DD
:1016E000FFE70298012851D1FFE742F20001C4F25E
:1016F0000201086840F010000860086820F0070048
:101700000860086840F00200086041F20401C4F279
:10171000020100910868086008680860086840F4E1
:1017200080600860086820F47C100860086840F455
:10173000E810086041F20001C4F20201086840F0BC
:1017400080700860FFE741F20000C4F20200006808
:101750008001002801D4FFE7F5E741F20401C4F25B
:101760000201086820F003000860086840F00200E9
:101770000860FFE741F20400C4F20200006800F0D4
:101780000C00082801D0FFE7F4E700E0FFE704B011
:101790007047000080B582B041F20001C4F202013E
:1017A000086840F480300860FFE741F20000C4F2AE
:1017B000020000688003002801D4FFE7F5E742F249
:1017C0000001C4F20201086840F0100008600868D7
:1017D00020F007000860086840F00200086041F24D
:1017E0000401C4F20201086840F48030086008680F
:1017F00040F4E010086041F20001C4F20201086800
:1018000040F080700860FFE741F20000C4F202007F
:1018100000688001002801D4FFE7F5E741F20401E8
:10182000C4F20201019108680860086840F4806011
:10183000086008680860086820F00300086008680D
:1018400040F002000860FFE741F20400C4F2020029
:10185000006800F00C00082801D0FFE7F4E700F072
:1018600003F802B080BD000084B000200390029015
:10187000019041F20400C4F20200006800F00C0084
:1018800003900398009040B1FFE7009804280ED021
:10189000FFE70098082814D056E040F20401C2F295
:1018A000000141F20020C0F27A00086056E040F2E8
:1018B0000401C2F2000141F20020C0F27A00086087
:1018C0004CE041F20400C4F20200016801F470111E
:1018D0000291006800F4803001900299022000EB30
:1018E00091400290019860B9FFE7029840F600111C
:1018F000C0F23D01484340F20401C2F20001086019
:1019000021E041F20400C4F20200006880030028D4
:101910000CD5FFE7029840F60011C0F23D014843A4
:1019200040F20401C2F2000108600BE0029841F2AB
:101930000021C0F27A01484340F20401C2F20001E2
:101940000860FFE7FFE709E040F20401C2F200018E
:1019500041F20020C0F27A000860FFE741F2040083
:10196000C4F202000068C0B2010943F27C60C0F614
:101970000000405C0390039A40F20401C2F20001AF
:101980000868D040086004B07047000080B541F29C
:101990000002C4F20202106840F00100106041F23F
:1019A0000401C4F2020108680023CFF6FF031840C7
:1019B000086010684FF6FF73CFF6F66318401060AA
:1019C000106820F480201060086820F4FE00086091
:1019D00041F20801C4F202014FF41F000860FFF752
:1019E00043FE4EF60851CEF200014FF00060086051
:1019F00080BD00001020C4F200000088C00788B13C
:101A0000FFE71021C4F20001088820F001000880DF
:101A100040F26801C2F200010868B0FA80F04009A3
:101A20000860FFE77047000040F21040C4F2000079
:101A30000088C00790B1FFE740F21041C4F20001F6
:101A4000088820F00100088040F26C01C2F2000119
:101A50000868B0FA80F040090860FFE770470000AE
:101A600081B08DF803009DF9030000280ED4FFE734
:101A70009DF9031001F01F02012090404A094EF227
:101A80000011CEF2000141F82200FFE701B07047DB
:101A900082B08DF8070000919DF9070000280AD454
:101AA000FFE7009800019DF907104EF20042CEF2C8
:101AB000000288540BE0009800019DF8071001F027
:101AC0000F014EF61452CEF200028854FFE702B026
:101AD0007047000080B582B08DF807008DF80610C1
:101AE0009DF807009DF806204E2100F00DFA02B087
:101AF00080BD000080B582B0ADF80600BDF80600DC
:101B000038B9FFE7012002220023194600F03CF813
:101B10000CE0BDF80600032807D1FFE701200321F0
:101B20000222002300F030F8FFE7FFE702B080BD9B
:101B300080B582B0019000200090FFE700980199E5
:101B4000884209D2FFE74FF47A7000F007F8FFE708
:101B5000009801300090F1E702B080BD81B00090A4
:101B600040F62401C4F2000100200880FFE740F69F
:101B70002400C4F2000000880099884201D2FFE7E7
:101B8000F5E701B07047000084B0ADF80E00ADF885
:101B90000C1002920193BDF80E00012809D1FFE755
:101BA00041F21801C4F20201086840F00400086024
:101BB0001DE0BDF80E00022809D1FFE741F218012F
:101BC000C4F20201086840F0080008600EE0BDF8A9
:101BD0000E00032809D1FFE741F21801C4F2020107
:101BE000086840F010000860FFE7FFE7FFE7BDF876
:101BF0000C00072860DCFFE7BDF80E0001281AD1B1
:101C0000FFE7BDF80C0081000F2000FA01F240F65A
:101C10000001C4F201010868904308600198BDF812
:101C20000C2093009840029A02339A4002430868BD
:101C3000104308603FE0BDF80E0002281AD1FFE70C
:101C4000BDF80C0081000F2000FA01F240F60041BF
:101C5000C4F201010868904308600198BDF80C20A7
:101C600093009840029A02339A4002430868104356
:101C700008601FE0BDF80E0003281AD1FFE7BDF889
:101C80000C0081000F2000FA01F241F20001C4F2C1
:101C900001010868904308600198BDF80C2093008A
:101CA0009840029A02339A40024308681043086041
:101CB000FFE7FFE7FFE774E0BDF80E00012821D140
:101CC000FFE7BDF80C006FF01F0202EB80010F2050
:101CD00000FA01F340F60401C4F2010108689843D8
:101CE00008600198BDF80CC002EB8C029040029A8B
:101CF0006FF01D0303EB8C039A4002430868104306
:101D000008604DE0BDF80E00022821D1FFE7BDF8C4
:101D10000C006FF01F0202EB80010F2000FA01F3AC
:101D200040F60441C4F20101086898430860019834
:101D3000BDF80CC002EB8C029040029A6FF01D03BC
:101D400003EB8C039A40024308681043086026E0C6
:101D5000BDF80E00032821D1FFE7BDF80C006FF09D
:101D60001F0202EB80010F2000FA01F341F204018F
:101D7000C4F201010868984308600198BDF80CC0DE
:101D800002EB8C029040029A6FF01D0303EB8C0370
:101D90009A400243086810430860FFE7FFE7FFE747
:101DA000FFE7029802283BD1FFE70198C0BBFFE79D
:101DB000BDF80E0001460091012808D0FFE7009809
:101DC000022811D0FFE7009803281AD026E0BDF8BA
:101DD0000C10012000FA01F240F60C01C4F20101DE
:101DE0000868104308601AE0BDF80C10012000FAE2
:101DF00001F240F60C41C4F201010868104308608A
:101E00000DE0BDF80C10012000FA01F241F20C01C6
:101E1000C4F2010108681043086000E0FFE7FFE733
:101E200004B0704784B0ADF80E00ADF80C10ADF8FA
:101E30000A20BDF80A0001282FD1FFE7BDF80E00E7
:101E400001460191012808D0FFE7019802280ED031
:101E5000FFE70198032814D01DE0BDF80C10012005
:101E6000884040F61001C4F20101086014E0BDF89A
:101E70000C100120884040F61041C4F201010860B6
:101E80000AE0BDF80C100120884041F21001C4F2B4
:101E90000101086000E0FFE734E0BDF80E000146F4
:101EA0000091012808D0FFE70098022810D0FFE732
:101EB0000098032818D023E0BDF80C0000F11001B1
:101EC0000120884040F61001C4F20101086018E0CA
:101ED000BDF80C0000F110010120884040F61041CF
:101EE000C4F2010108600CE0BDF80C0000F1100123
:101EF0000120884041F21001C4F20101086000E0B5
:101F0000FFE7FFE704B0704781B08DF803008DF85C
:101F100002108DF801209DF80300D8B9FFE79DF865
:101F200002009DF80110084345F21041C4F200017F
:101F30000880FFE745F21440C4F2000000888007E3
:101F4000002801D4FFE7F5E745F21840C4F200008D
:101F5000008820E09DF8030001281BD1FFE79DF8D1
:101F600002009DF80110084345F61001C4F200017B
:101F70000880FFE745F61400C4F2000000888007DF
:101F8000002801D4FFE7F5E745F61800C4F2000089
:101F90000088FFE7FFE7012001B0704781B08DF8AE
:101FA00003008DF802109DF8030098B9FFE79DF833
:101FB000020045F21041C4F200010880FFE745F23B
:101FC0001440C4F2000000880006002801D4FFE796
:101FD000F5E718E09DF80300012813D1FFE79DF80D
:101FE000020045F61001C4F200010880FFE745F643
:101FF0001400C4F2000000880006002801D4FFE7A6
:10200000F5E7FFE7FFE7012001B0704780B586B034
:102010008DF81700ADF8141041F21801C4F2020156
:10202000086840F0080008609DF8170060BBFFE7F3
:10203000022003900621032304931A46FFF7A4FD10
:102040000398049B07211A46FFF79EFD41F21C01ED
:10205000C4F20201086840F40010086045F204412F
:10206000C4F2000108200880BDF8140045F21C41AC
:10207000C4F20001088045F20041C4F20001088862
:1020800040F00100088031E09DF8170001282CD1B4
:10209000FFE7022001900A21032302931A46FFF76B
:1020A00073FD0198029B0B211A46FFF76DFD41F26B
:1020B0001C01C4F20201086840F48000086045F683
:1020C0000401C4F2000108200880BDF8140045F6A0
:1020D0001C01C4F20001088045F60001C4F20001B1
:1020E000088840F001000880FFE7FFE7012006B004
:1020F00080BD000081B08DF803008DF802109DF8BE
:10210000030048BBFFE7FFE745F21440C4F20000BC
:1021100000884006002801D4FFE7F5E745F21040AB
:10212000C4F2000000888DF801009DF8020048B15B
:10213000FFE745F20041C4F20001088840F48060E6
:10214000088008E045F20041C4F20001088820F44C
:1021500080600880FFE72EE09DF80300012829D168
:10216000FFE7FFE745F61400C4F2000000884006D0
:10217000002801D4FFE7F5E745F61000C4F200009F
:1021800000888DF801009DF8020048B1FFE745F690
:102190000001C4F20001088840F48060088008E073
:1021A00045F60001C4F20001088820F48060088030
:1021B000FFE7FFE7FFE79DF8010001B0704700006F
:1021C00081B08DF803009DF8030098B9FFE745F250
:1021D0000041C4F20001088840F480700880FFE7E5
:1021E00045F21440C4F200000088C00708B9FFE7B8
:1021F000F6E718E09DF80300012813D1FFE745F644
:102200000001C4F20001088840F480700880FFE7F4
:1022100045F61400C4F200000088C00708B9FFE7C3
:10222000F6E7FFE7FFE7012001B0704781B08DF8C6
:1022300003009DF8030048B9FFE745F20041C4F2EE
:102240000001088840F4007008800EE09DF803004B
:10225000012809D1FFE745F60001C4F20001088812
:1022600040F400700880FFE7FFE7012001B07047ED
:1022700080B58AB041F21801C4F20201086840F04A
:102280000100086072B60821C4F2010102910868D9
:1022900020F00F00086040F20041C4F201010391F8
:1022A000086820F001000860086840F0010008603C
:1022B00040F20C41C4F201010491086840F00100B1
:1022C000086040F20841C4F201010591086820F05D
:1022D00001000860062001900021FFF7D9FB01985A
:1022E000FFF7BEFBDDF808C0039B049A0599DCF8F4
:1022F000000020F0F000CCF80000186820F0020088
:102300001860186840F002001860106840F0020081
:102310001060086820F002000860DCF8000020F47B
:102320007040CCF80000186820F0080018601868A9
:1023300040F008001860106840F00800106008685D
:1023400020F008000860072006900221FFF7A0FB9C
:102350000698FFF785FB1C2007900321FFF798FBE9
:102360000798FFF77DFB1D2008900421FFF790FBE5
:102370000898FFF775FB092009900121FFF788FBFA
:102380000998FFF76DFB62B60AB080BD80B586B0D4
:102390008DF817008DF816109DF81700082104918C
:1023A00000F0F8FA0A200390FFF7D8FB9DF8170019
:1023B0000C21029100F0EEFA05200190FFF7CEFB10
:1023C0009DF817009DF8161001F0F0010C3100F097
:1023D000E1FA0398FFF7C2FB9DF817009DF816106D
:1023E00001F0F001083100F0D5FA1420FFF7B6FB38
:1023F00002999DF8170000F0CDFA0198FFF7AEFBA7
:1024000002999DF817009DF8162062F3071100F05D
:10241000C1FA0398FFF7A2FB04999DF817009DF8F5
:10242000162062F3071100F0B5FA06B080BD000077
:1024300080B586B08DF817008DF816109DF817003E
:102440000921049100F0A6FA0A200390FFF786FB09
:102450009DF817000D21029100F09CFA05200190D3
:10246000FFF77CFB9DF817009DF8161001F0F001B6
:102470000D3100F08FFA0398FFF770FB9DF81700FD
:102480009DF8161001F0F001093100F083FA1420D4
:10249000FFF764FB02999DF8170000F07BFA0198A2
:1024A000FFF75CFB02999DF817009DF8162062F378
:1024B000071100F06FFA0398FFF750FB04999DF89D
:1024C00017009DF8162062F3071100F063FA06B0BA
:1024D00080BD000080B58AB08DF827009DF82700E8
:1024E0002D21FFF793FD1420FFF722FB9DF8270015
:1024F0000821039100F04EFA0A200490FFF72EFB0A
:102500009DF827000C21069100F044FA0520089060
:10251000FFF724FB9DF827003C21019100F03AFAD7
:102520000498FFF71BFB9DF827003821029100F06B
:1025300031FA01200790FFF7FBFA03999DF8270075
:1025400000F028FA0498FFF709FB06999DF8270088
:1025500000F020FA0898FFF701FB01999DF8270089
:1025600000F018FA0498FFF7F9FA02999DF827008D
:1025700000F010FA0798FFF7DBFA03999DF827009F
:1025800000F008FA0498FFF7E9FA06999DF8270089
:1025900000F000FA0898FFF7E1FA01999DF827008A
:1025A00000F0F8F90498FFF7D9FA02999DF827008E
:1025B00000F0F0F90798FFF7BBFA03999DF82700A0
:1025C00000F0E8F90498FFF7C9FA06999DF827008A
:1025D00000F0E0F90898FFF7C1FA9DF827002C21D8
:1025E000059100F0D7F90498FFF7B8FA9DF8270095
:1025F000282100F0CFF905999DF82700FFF7C6FEC6
:102600000898FFF795FA06999DF82700FFF7BEFE98
:102610000898FFF78DFA07999DF82700FFF7B6FE97
:102620000898FFF785FA9DF827000221FFF7AEFE14
:102630000898FFF77DFA0AB080BD000080B584B02D
:102640008DF80F008DF80E108DF80D2002930020EC
:10265000ADF806009DF80E00012804D1FFE7002028
:10266000ADF8060009E09DF80E00022804D1FFE74E
:102670004020ADF80600FFE7FFE79DF80F00BDF82A
:1026800006109DF80D2011448031C9B2FFF77EFE7F
:102690006420FFF763FA9DF80F00029900F002F83A
:1026A00004B080BD80B584B08DF80F000291002089
:1026B0000190FFE702980199405C70B1FFE79DF837
:1026C0000F000299019A895CFFF7B2FE0198013070
:1026D00001906420FFF742FAECE704B080BD0000EF
:1026E00080B582B001900198022807D1FFE7012050
:1026F000002202231946FFF747FA06E005210022CF
:1027000002231846FFF740FAFFE702B080BD000041
:1027100081B000900098022807D1FFE740F614012D
:10272000C4F201010420086006E040F61441C4F23E
:10273000010120200860FFE701B0704780B582B03A
:1027400001900198022806D1FFE7022101221046DC
:10275000FFF768FB05E0022005210122FFF762FB7D
:10276000FFE702B080BD000010B5B0B000200A90B5
:102770002F90FFF70FF800F089F80A982D21FFF746
:1027800045FC0A98FFF7A6FE0120FEF769FE014608
:102790000A988DF8BB10FFF7ADF90320FFF7AAF9EF
:1027A0000520FFF79DFF0220FFF79AFFFFF760FD6E
:1027B000FFE70120099018A9FEF7B8FE1C981D9AA2
:1027C0001E9BDDF87CC0DDF880E0219C69464C61F1
:1027D000C1F810E0C1F80CC08B604A60086043F299
:1027E0008C62C0F600020DF12E0007903221FDF739
:1027F00057FD079B0999002208921046FFF71EFF1C
:102800004FF4FA70FFF794F908980999FFF7BEFDA5
:1028100040F27000C2F20000006801282ED1FFE7EC
:1028200040F26800C2F200000068012804D1FFE70E
:102830000520FFF783FF03E00520FFF769FFFFE7AF
:1028400040F20000C2F200000068012811D1FFE749
:1028500040F26C00C2F200000068012804D1FFE7DA
:102860000220FFF76BFF03E00220FFF751FFFFE7B5
:1028700003E00220FFF74CFFFFE706E00220FFF72E
:1028800047FF0520FFF744FFFFE792E780B541F2DD
:102890001C0CC4F2020CDCF8000040F00400CCF880
:1028A000000040F20401C2F2000108684DF68362A4
:1028B000C4F21B32A0FB02024FF0FF3000EB924249
:1028C00040F62803C4F200031A8040F62C03C4F239
:1028D00000034FF6FF721A8040F60003C4F20003B3
:1028E00001221A80DCF8002042F00102CCF800201E
:1028F0000B6844F6D352C1F26202A3FB02E300EB81
:10290000931340F2280EC4F2000EAEF8003040F2ED
:102910002C0EC4F2000E41F28733AEF8003040F2C4
:102920000C0EC4F2000EBEF8003043F00103AEF806
:1029300000304FF0804EBEF8003043F00103AEF897
:102940000030DCF8003043F00203CCF800300968B6
:10295000A1FB022100EB911040F22841C4F20001DA
:10296000088040F22C41C4F2000140F2E7300880B8
:1029700040F20C41C4F20001088840F001000880D8
:1029800040F20041C4F20001088840F001000880D4
:1029900080BD000080B582B08DF807008DF806106C
:1029A0009DF80700FFF70CFC9DF807000021FFF7DA
:1029B00091F89DF807009DF80610FFF7EFFA9DF8D3
:1029C0000700FFF733FC02B080BD5FEA400C08BF90
:1029D00091F0000F4FEA8C234FEAC12243EA515194
:1029E0004FEA1C5018BF00F5F0404FEA300018BF06
:1029F00041F000415FEA6C5C00F02980BCF1FF3FD0
:102A000008BF40F080407047130C06BF12044FF01F
:102A1000100C4FF0000C130E04BF12020CF1080C46
:102A2000130F04BF12010CF1040C930F04BF9200AA
:102A30000CF1020CD30F04BF52000CF1010C114633
:102A40004FF00002A0F11F00A0EB0C00704711F046
:102A5000004F08BF704731F000413FF4D5AF0B0C79
:102A600006BF09044FF0100C4FF0000C0B0E04BF12
:102A700009020CF1080C0B0F04BF09010CF1040C46
:102A80008B0F04BF89000CF1020CCB0F04BF49006F
:102A90000CF1010CCCF1200322FA03F341EA03010B
:102AA00002FA0CF2A0EB0C0000F1010070470000EC
:102AB00023F07F4720F07F4C80EA030000F00040C5
:102AC000ACEB070303F57C5303F1FF032DE98049C9
:102AD00009B44FEA144324EA03484FEA154B25EAA8
:102AE0000B4E0FF2042606EB13273E7803FB066716
:102AF000C7F5000707FB06F64FEAD64606F10206C1
:102B00004FEA543707FB066CCCF1005C4FEA1C47D8
:102B10002CEA074C0CFB06F507FB06F404EB154604
:102B20004FEA961649085FEA320234BF00204FF0A0
:102B300000404FEAD13706FB07FC4FEA1C4C0CFB68
:102B40000BF7D21B03FB0CF761EB07010CFB0EF735
:102B5000B0EB074072EB17420CFB08F734BFA2EB57
:102B60000742B2EB074261EB17414FEA0C444FEAD0
:102B7000910706FB07FC4FEA1C4C0CFB0BF7B0EB74
:102B8000C74072EB573203FB0CF734BFA2EBC742CE
:102B9000B2EBC74261EB57310CFB0EF7B0EBC7004D
:102BA00072EB57720CFB08F734BFA2EBC702B2EB13
:102BB000C70261EB57714FEA816141EA92114FEA16
:102BC000826242EA90124FEA806004EBCC04039FD9
:102BD0004FEAD13706FB07FC4FEA1C4C0CFB0BF706
:102BE000D21B03FB0CF761EB07010CFB0EF7B0EBFC
:102BF000074072EB17420CFB08F734BFA2EB074209
:102C0000B2EB074261EB17414FEA8C5504EB9C2471
:102C10004FEA910706FB07FC4FEA1C4C0CFB0BF735
:102C2000B0EBC74072EB573203FB0CF734BFA2EB9B
:102C3000C742B2EBC74261EB57310CFB0EF7B0EB6A
:102C4000C70072EB57720CFB08F734BFA2EBC70248
:102C5000B2EBC70261EB57714FEA816141EA921111
:102C60004FEA826242EA90124FEA806015EB4C25EF
:102C700044F100044FEAD13706FB07FC4FEA1C4C35
:102C80000CFB0BF7D21B03FB0CF761EB07010CFBF2
:102C90000EF7B0EB074072EB17420CFB08F734BF9E
:102CA000A2EB0742B2EB074261EB17414FEA8131D9
:102CB00041EA92414FEA823242EA90424FEA803042
:102CC0004FEA0C7615EB1C1544F1000448EA034367
:102CD0004EEA0B484FF0000EB2EB080C71EB030705
:102CE00024BF624639464EEB0E0E4FF0000B001823
:102CF000524149414BEB0B0BB2EB080C71EB030754
:102D00007BF1000B24BF624639464EEB0E0E4FF0AE
:102D1000000B0018524149414BEB0B0BB2EB080C76
:102D200071EB03077BF1000B24BF624639464EEB83
:102D30000E0E51EA020718BF46F0010616EB0E769A
:102D400055F1000254F1000103D5BDE88901BDE849
:102D50000088BDE88901BDE80048B619524141EB41
:102D60000101A3F10103704780807F7E7D7C7B7A27
:102D70007978777676757473727171706F6E6E6D27
:102D80006C6C6B6A6A6968686766666564646363CD
:102D900062616160605F5F5E5E5D5D5C5C5B5B5A53
:102DA0005A595958585757565655555554545353C0
:102DB00052525251515050504F4F4F4E4E4D4D4D1B
:102DC0004C4C4C4B4B4B4A4A4A4949494848484766
:102DD00047474746464645454544444444434343A4
:102DE00043424242424141419C46002B30D477004D
:102DF0002BD04FEA37071CB503B44FF010004FF04B
:102E00001001BAF1000F06D0BCF1000FDCBF40F09A
:102E1000080040F008014FF000000FBCBDE8104072
:102E20000BF1010BBBF1010F08BF5FEA170722BFCF
:102E300012F1010211F101014FF0004143F10003D1
:102E400000F0004043EA00007047F9D35708D0E78C
:102E500046EA06464FEA164613F1400F1FDD13F10E
:102E6000200FDFBF16430A46002120335B42BED04D
:102E7000C3F1200746EA06464FEA164602FA07F76C
:102E800046EA070622FA03F2C3F1200701FA07F720
:102E900042EA070221FA03F14FF00003A7E746EAEE
:102EA000020646EA06464FEA164646EA0106BCBF57
:102EB00046EA0646360C4FF000034FF000024FF092
:102EC000000194E72DE9804C70B49A46934691E84E
:102ED000380007C831EA400C48BF34EA430C03D538
:102EE000FFF7E6FDFFF780FFF0BCBDE8008C2DE9A1
:102EF000804C70B49A46934691E8380007C810F0A9
:102F0000804F08BF13F0804F03D100F005F8FFF7A2
:102F10006BFFF0BCBDE8008C20F07F4723F07F4CB6
:102F200080EA030000F0004007EB0C03A3F57C539C
:102F3000A3F1FE0392F0000F00F0B38095F0000FB4
:102F400000F077802DE901494FEA114021EA00485D
:102F50004FEA144624EA064700FB06FC08FB06F687
:102F600007FB08F818EB06484CEB164C00FB07F77C
:102F700018EB07484CEB17404FEA124B22EA0B4E76
:102F80004FEA154625EA06470BFB06FC0EFB06F644
:102F900007FB0EFE1EEB064E4CEB164C0BFB07F729
:102FA0001EEB074E4CEB174B18EB0B0840F10000E3
:102FB00018EB0E0B58EB000840F100008F1A4FF091
:102FC00000014FF000063CBFC943661B14BFB5EBC0
:102FD000040C00213CBFC943F61B4FEA174427EA03
:102FE00004454FEA1C472CEA074C04FB076205FB2B
:102FF00007F70CFB05F616EB074642EB174204FBFE
:103000000CFC16EB0C4642EB1C421BEB060658EB85
:10301000020241414EEA8E0E46EA9E0601D5BDE807
:103020000189B619524141EB0101A3F10103BDE849
:1030300001894FEA144524EA05464FEA114721EA7F
:10304000074C05FB07F406FB07F70CFB06F111EB39
:10305000074144EB174405FB0CFC11EB0C4144EB1E
:103060001C444FEA124722EA074C05FB07F206FB15
:1030700007F70CFB06F616EB074642EB174205FB7B
:103080000CFC16EB0C4642EB1C456A1854F100018F
:1030900048BF7047B619524141EB0101A3F101034A
:1030A000704795F0000F37D04FEA114221EA0246EF
:1030B0004FEA144724EA074C02FB07F106FB07F727
:1030C0000CFB06F414EB074441EB174102FB0CFC2C
:1030D00014EB0C4441EB1C414FEA154725EA074C21
:1030E00002FB07F506FB07F70CFB06F616EB074697
:1030F00045EB174502FB0CFC16EB0C4645EB1C425E
:10310000121951F1000148BF7047B619524141EB05
:103110000101A3F1010370474FEA144524EA054673
:103120004FEA114721EA074C05FB07F106FB07F7B9
:103130000CFB06F212EB074241EB174105FB0CFCBE
:1031400012EB0C4251EB1C414FF0000648BF704798
:10315000921841EB0101A3F101037047490050EAC5
:10316000C12018BF04204A0D18BF40F0010040F2F2
:10317000FF72B2EB515F08BF40F00200012808BFA8
:103180000520704730380A2801D2012070470020FE
:103190007047000010B500290AD00878002807D031
:1031A00005487844FEF7C0F8002801D0002010BD83
:1031B0000248784410BD0000260500001E050000EE
:1031C00010B500290AD00878002807D005487844AF
:1031D000FEF7AAF8002801D0002010BD024878446C
:1031E00010BD0000160500000E0500002DE9C041CD
:1031F00030B4DFF8A4C23CEA111418BF3CEA13143F
:1032000000F0ED801CEA111481EA030544EAD5744C
:1032100018BF1CEA131500F0C880A4EB050404F1E4
:103220007F7404F500344FF0004545EAC12145EABA
:10323000C32341EA505143EA52534FEAC0204FEAB8
:10324000C222994208BF904200F09D804FEA136568
:103250000FF24416765D4FEA134506FB05F7C7F1FA
:10326000807706FB07F74FEAD737A7FB036876425C
:10327000A7FB06CEC8F5803838BFA8F1010807FBC8
:1032800008E6A6FB028C4FF0000EE6FB03CEDCF155
:10329000000CCEF1004E38BFAEF1010EA6FB0C586B
:1032A0004FF00007E6FB0E87A1FB08C6A0FB07CE88
:1032B00016EB0E064FF0000545F10005E1FB076532
:1032C00015F1E04E7EBFA4F580345FEA46066D41FD
:1032D00016F1800745F100054FEA172747EA056711
:1032E0004FEA15254FEA0666A6F1DE46B6F1805F85
:1032F00020D9384605EBC47124F0010C01EB0C1108
:10330000BCF1FE6F02D8F0BCBDE8008124425CBF76
:1033100001F5801E9EEAC47F02D4F0BCBDE80081A6
:10332000244200F13980A1F1C041F0BCBDE8004168
:1033300000F01BB94FEAD02040EA41504FEAD121BA
:103340004FEAD22242EA43524FEAD323A7FB028636
:1033500007FB036605FB02661EEA0E0F58BFA6EBCD
:103360000056B6EB00564FEA520E4EEAC37E18EBFB
:103370000E0E56EB530EBCD518EB02085E417F1CB7
:1033800055F10005B5E74FF480154FF000074FF0F9
:1033900000064FF00008ACE701F1C04101F0004128
:1033A0004FF00000F0BCBDE800810CEA131511EAF3
:1033B0000C1F00D00CE013EA0C1F00F026804FF029
:1033C000000081EA030101F00041F0BCBDE800818A
:1033D000F0BCBDE8004181EA030100F0C6B8F0BCD2
:1033E000BDE8004170B500F072F800BF097EFC3EF8
:1033F00000F007B84FF0000081EA030101F000413E
:10340000704781EA030100F0B0B8F0BCBDE80041AC
:1034100022494FF000007047FFFDFBF9F7F5F4F289
:10342000F0EEEDEBE9E8E6E4E3E1E0DEDDDBDAD85F
:10343000D7D5D4D3D1D0CFCDCCCBCAC8C7C6C5C4BD
:10344000C2C1C0BFBEBDBCBBBAB9B8B7B6B5B4B3D4
:10345000B2B1B0AFAEADACABAAA9A8A8A7A6A5A4BF
:10346000A3A3A2A1A09F9F9E9D9C9C9B9A99999883
:103470009797969595949393929191908F8F8E8E26
:103480008D8C8C8B8B8A89898888878786858584B3
:1034900084838382828181800000FF070000F87F9F
:1034A00010F0004248BF4042B0FA80F310FA03F136
:1034B0000AD0C3F11D0303F5806302EB03524FEA08
:1034C000415002EBD12170474FF0000070470EF1E0
:1034D000020E2EF0030E5EF8046B364205D4012A6C
:1034E00043EB030515F5001F12D8012841EB010C31
:1034F0001CF5001F0CD80ED14FEAD17C0CEB4C0C04
:103500000CF1020C15F5001F08BF4CEBD37C04E056
:103510004FF0080C01E04FEAD37C0CEB4C0526FA87
:1035200005F606F00706B6F1040C06D20EEB860C83
:10353000BDE870404CF0010C6047DFE80CF0090B6F
:1035400002024FF00041A1F500214FF0000070BDD4
:1035500019461046012851EB010418BFD4F5001498
:1035600084BF002001F0004170BD0808A0F50011E3
:103570004FEA31017047FDF7E1BAFDF715BC0000D5
:10358000000000000000000030313233343536379F
:103590003839414243444546403058003031323397
:1035A0003435363738396162636465664030780097
:1035B00004000008000000000000000200010000FC
:1035C00010303132333435363738396162636465EF
:1035D000667870003031323334353637383941420D
:1035E000434445465850000002400000000000A03F
:1035F0000000000005400000000000C800000000BE
:103600000C4000000000409C000000001940000039
:103610000020BCBE0000000034400000BFC91B8E6B
:1036200000000004B5400000504BCFD06607E2CF49
:10363000010000006C4100003E8251AADFEEA73479
:1036400001000000D9420000DCB5A0E23A301F972B
:10365000FFFFFFFFB4450000FD25A0C8E9A3C14F4F
:10366000FFFFFFFFFF3F00000000008000000000A0
:10367000FF3F00000000008000000000000000008C
:10368000000000000102030406070809583A20253B
:103690002E32662C20593A20252E32662C205A3A9A
:1036A00020252E3266000000F437000800000020BC
:1036B0000800000050010008FC3700080800002046
:1036C00070060000700100081C00000043000000AC
:1036D000F8FFFFFF0C0000000E0000000F000000CC
:1036E0002E0000001001000043000000F8FFFFFF63
:1036F0000040404040404040404041414141414005
:1037000040404040404040404040404040404040B9
:103710004005020202020202020202020202020248
:10372000022020202020202020202002020202024D
:1037300002029090909090901010101010101010A5
:1037400010101010101010101010101002020202B1
:1037500002028888888888880808080808080808F5
:1037600008080808080808080808080802020202F1
:103770004000000000000000000000000000000009
:103780000000000000000000000000000000000039
:103790000000000000000000000000000000000029
:1037A0000000000000000000000000000000000019
:1037B0000000000000000000000000000000000009
:1037C00000000000000000000000000000000000F9
:1037D00000000000000000000000000000000000E9
:1037E00000000000000000000000000000000000D9
:0C37F000000000000100000000A24A04DC
:04000005080002618C
:00000001FF
